{
	"contracts/cybertron.sol": {
		"prime": {
			"abi": [
				{
					"inputs": [
						{
							"internalType": "string",
							"name": "name",
							"type": "string"
						}
					],
					"name": "Factory",
					"outputs": [],
					"stateMutability": "nonpayable",
					"type": "function"
				},
				{
					"inputs": [
						{
							"internalType": "address",
							"name": "",
							"type": "address"
						}
					],
					"name": "personal_contract",
					"outputs": [
						{
							"internalType": "address",
							"name": "",
							"type": "address"
						}
					],
					"stateMutability": "view",
					"type": "function"
				}
			],
			"devdoc": {
				"kind": "dev",
				"methods": {},
				"version": 1
			},
			"evm": {
				"assembly": "    /* \"contracts/cybertron.sol\":57:444  contract prime {... */\n  mstore(0x40, 0x80)\n  callvalue\n  dup1\n  iszero\n  tag_1\n  jumpi\n  0x00\n  dup1\n  revert\ntag_1:\n  pop\n  dataSize(sub_0)\n  dup1\n  dataOffset(sub_0)\n  0x00\n  codecopy\n  0x00\n  return\nstop\n\nsub_0: assembly {\n        /* \"contracts/cybertron.sol\":57:444  contract prime {... */\n      mstore(0x40, 0x80)\n      callvalue\n      dup1\n      iszero\n      tag_1\n      jumpi\n      0x00\n      dup1\n      revert\n    tag_1:\n      pop\n      jumpi(tag_2, lt(calldatasize, 0x04))\n      shr(0xe0, calldataload(0x00))\n      dup1\n      0x17b87d80\n      eq\n      tag_3\n      jumpi\n      dup1\n      0x9d96f200\n      eq\n      tag_4\n      jumpi\n    tag_2:\n      0x00\n      dup1\n      revert\n        /* \"contracts/cybertron.sol\":131:184  mapping (address => address) public personal_contract */\n    tag_3:\n      tag_5\n      0x04\n      dup1\n      calldatasize\n      sub\n      dup2\n      add\n      swap1\n      tag_6\n      swap2\n      swap1\n      tag_7\n      jump\t// in\n    tag_6:\n      tag_8\n      jump\t// in\n    tag_5:\n      mload(0x40)\n      tag_9\n      swap2\n      swap1\n      tag_10\n      jump\t// in\n    tag_9:\n      mload(0x40)\n      dup1\n      swap2\n      sub\n      swap1\n      return\n        /* \"contracts/cybertron.sol\":237:442  function Factory(string memory name) public {... */\n    tag_4:\n      tag_11\n      0x04\n      dup1\n      calldatasize\n      sub\n      dup2\n      add\n      swap1\n      tag_12\n      swap2\n      swap1\n      tag_13\n      jump\t// in\n    tag_12:\n      tag_14\n      jump\t// in\n    tag_11:\n      stop\n        /* \"contracts/cybertron.sol\":131:184  mapping (address => address) public personal_contract */\n    tag_8:\n      mstore(0x20, 0x00)\n      dup1\n      0x00\n      mstore\n      keccak256(0x00, 0x40)\n      0x00\n      swap2\n      pop\n      sload\n      swap1\n      0x0100\n      exp\n      swap1\n      div\n      0xffffffffffffffffffffffffffffffffffffffff\n      and\n      dup2\n      jump\t// out\n        /* \"contracts/cybertron.sol\":237:442  function Factory(string memory name) public {... */\n    tag_14:\n        /* \"contracts/cybertron.sol\":291:321  address addr_personal_contract */\n      0x00\n        /* \"contracts/cybertron.sol\":344:354  msg.sender */\n      caller\n        /* \"contracts/cybertron.sol\":364:368  this */\n      address\n        /* \"contracts/cybertron.sol\":332:370  new autobot(msg.sender, address(this)) */\n      mload(0x40)\n      tag_16\n      swap1\n      tag_17\n      jump\t// in\n    tag_16:\n      tag_18\n      swap3\n      swap2\n      swap1\n      tag_19\n      jump\t// in\n    tag_18:\n      mload(0x40)\n      dup1\n      swap2\n      sub\n      swap1\n      0x00\n      create\n      dup1\n      iszero\n      dup1\n      iszero\n      tag_20\n      jumpi\n      returndatasize\n      0x00\n      dup1\n      returndatacopy\n      revert(0x00, returndatasize)\n    tag_20:\n      pop\n        /* \"contracts/cybertron.sol\":291:371  address addr_personal_contract = address(new autobot(msg.sender, address(this))) */\n      swap1\n      pop\n        /* \"contracts/cybertron.sol\":413:435  addr_personal_contract */\n      dup1\n        /* \"contracts/cybertron.sol\":381:398  personal_contract */\n      0x00\n        /* \"contracts/cybertron.sol\":381:410  personal_contract[msg.sender] */\n      dup1\n        /* \"contracts/cybertron.sol\":399:409  msg.sender */\n      caller\n        /* \"contracts/cybertron.sol\":381:410  personal_contract[msg.sender] */\n      0xffffffffffffffffffffffffffffffffffffffff\n      and\n      0xffffffffffffffffffffffffffffffffffffffff\n      and\n      dup2\n      mstore\n      0x20\n      add\n      swap1\n      dup2\n      mstore\n      0x20\n      add\n      0x00\n      keccak256\n      0x00\n        /* \"contracts/cybertron.sol\":381:435  personal_contract[msg.sender] = addr_personal_contract */\n      0x0100\n      exp\n      dup2\n      sload\n      dup2\n      0xffffffffffffffffffffffffffffffffffffffff\n      mul\n      not\n      and\n      swap1\n      dup4\n      0xffffffffffffffffffffffffffffffffffffffff\n      and\n      mul\n      or\n      swap1\n      sstore\n      pop\n        /* \"contracts/cybertron.sol\":237:442  function Factory(string memory name) public {... */\n      pop\n      pop\n      jump\t// out\n    tag_17:\n      dataSize(sub_0)\n      dup1\n      dataOffset(sub_0)\n      dup4\n      codecopy\n      add\n      swap1\n      jump\t// out\n        /* \"#utility.yul\":7:352   */\n    tag_22:\n        /* \"#utility.yul\":85:90   */\n      0x00\n        /* \"#utility.yul\":110:176   */\n      tag_24\n        /* \"#utility.yul\":126:175   */\n      tag_25\n        /* \"#utility.yul\":168:174   */\n      dup5\n        /* \"#utility.yul\":126:175   */\n      tag_26\n      jump\t// in\n    tag_25:\n        /* \"#utility.yul\":110:176   */\n      tag_27\n      jump\t// in\n    tag_24:\n        /* \"#utility.yul\":101:176   */\n      swap1\n      pop\n        /* \"#utility.yul\":199:205   */\n      dup3\n        /* \"#utility.yul\":192:197   */\n      dup2\n        /* \"#utility.yul\":185:206   */\n      mstore\n        /* \"#utility.yul\":237:241   */\n      0x20\n        /* \"#utility.yul\":230:235   */\n      dup2\n        /* \"#utility.yul\":226:242   */\n      add\n        /* \"#utility.yul\":275:278   */\n      dup5\n        /* \"#utility.yul\":266:272   */\n      dup5\n        /* \"#utility.yul\":261:264   */\n      dup5\n        /* \"#utility.yul\":257:273   */\n      add\n        /* \"#utility.yul\":254:279   */\n      gt\n        /* \"#utility.yul\":251:253   */\n      iszero\n      tag_28\n      jumpi\n        /* \"#utility.yul\":292:293   */\n      0x00\n        /* \"#utility.yul\":289:290   */\n      dup1\n        /* \"#utility.yul\":282:294   */\n      revert\n        /* \"#utility.yul\":251:253   */\n    tag_28:\n        /* \"#utility.yul\":305:346   */\n      tag_29\n        /* \"#utility.yul\":339:345   */\n      dup5\n        /* \"#utility.yul\":334:337   */\n      dup3\n        /* \"#utility.yul\":329:332   */\n      dup6\n        /* \"#utility.yul\":305:346   */\n      tag_30\n      jump\t// in\n    tag_29:\n        /* \"#utility.yul\":91:352   */\n      pop\n      swap4\n      swap3\n      pop\n      pop\n      pop\n      jump\t// out\n        /* \"#utility.yul\":358:497   */\n    tag_31:\n        /* \"#utility.yul\":404:409   */\n      0x00\n        /* \"#utility.yul\":442:448   */\n      dup2\n        /* \"#utility.yul\":429:449   */\n      calldataload\n        /* \"#utility.yul\":420:449   */\n      swap1\n      pop\n        /* \"#utility.yul\":458:491   */\n      tag_33\n        /* \"#utility.yul\":485:490   */\n      dup2\n        /* \"#utility.yul\":458:491   */\n      tag_34\n      jump\t// in\n    tag_33:\n        /* \"#utility.yul\":410:497   */\n      swap3\n      swap2\n      pop\n      pop\n      jump\t// out\n        /* \"#utility.yul\":517:790   */\n    tag_35:\n        /* \"#utility.yul\":573:578   */\n      0x00\n        /* \"#utility.yul\":622:625   */\n      dup3\n        /* \"#utility.yul\":615:619   */\n      0x1f\n        /* \"#utility.yul\":607:613   */\n      dup4\n        /* \"#utility.yul\":603:620   */\n      add\n        /* \"#utility.yul\":599:626   */\n      slt\n        /* \"#utility.yul\":589:591   */\n      tag_37\n      jumpi\n        /* \"#utility.yul\":640:641   */\n      0x00\n        /* \"#utility.yul\":637:638   */\n      dup1\n        /* \"#utility.yul\":630:642   */\n      revert\n        /* \"#utility.yul\":589:591   */\n    tag_37:\n        /* \"#utility.yul\":680:686   */\n      dup2\n        /* \"#utility.yul\":667:687   */\n      calldataload\n        /* \"#utility.yul\":705:784   */\n      tag_38\n        /* \"#utility.yul\":780:783   */\n      dup5\n        /* \"#utility.yul\":772:778   */\n      dup3\n        /* \"#utility.yul\":765:769   */\n      0x20\n        /* \"#utility.yul\":757:763   */\n      dup7\n        /* \"#utility.yul\":753:770   */\n      add\n        /* \"#utility.yul\":705:784   */\n      tag_22\n      jump\t// in\n    tag_38:\n        /* \"#utility.yul\":696:784   */\n      swap2\n      pop\n        /* \"#utility.yul\":579:790   */\n      pop\n      swap3\n      swap2\n      pop\n      pop\n      jump\t// out\n        /* \"#utility.yul\":796:1058   */\n    tag_7:\n        /* \"#utility.yul\":855:861   */\n      0x00\n        /* \"#utility.yul\":904:906   */\n      0x20\n        /* \"#utility.yul\":892:901   */\n      dup3\n        /* \"#utility.yul\":883:890   */\n      dup5\n        /* \"#utility.yul\":879:902   */\n      sub\n        /* \"#utility.yul\":875:907   */\n      slt\n        /* \"#utility.yul\":872:874   */\n      iszero\n      tag_40\n      jumpi\n        /* \"#utility.yul\":920:921   */\n      0x00\n        /* \"#utility.yul\":917:918   */\n      dup1\n        /* \"#utility.yul\":910:922   */\n      revert\n        /* \"#utility.yul\":872:874   */\n    tag_40:\n        /* \"#utility.yul\":963:964   */\n      0x00\n        /* \"#utility.yul\":988:1041   */\n      tag_41\n        /* \"#utility.yul\":1033:1040   */\n      dup5\n        /* \"#utility.yul\":1024:1030   */\n      dup3\n        /* \"#utility.yul\":1013:1022   */\n      dup6\n        /* \"#utility.yul\":1009:1031   */\n      add\n        /* \"#utility.yul\":988:1041   */\n      tag_31\n      jump\t// in\n    tag_41:\n        /* \"#utility.yul\":978:1041   */\n      swap2\n      pop\n        /* \"#utility.yul\":934:1051   */\n      pop\n        /* \"#utility.yul\":862:1058   */\n      swap3\n      swap2\n      pop\n      pop\n      jump\t// out\n        /* \"#utility.yul\":1064:1439   */\n    tag_13:\n        /* \"#utility.yul\":1133:1139   */\n      0x00\n        /* \"#utility.yul\":1182:1184   */\n      0x20\n        /* \"#utility.yul\":1170:1179   */\n      dup3\n        /* \"#utility.yul\":1161:1168   */\n      dup5\n        /* \"#utility.yul\":1157:1180   */\n      sub\n        /* \"#utility.yul\":1153:1185   */\n      slt\n        /* \"#utility.yul\":1150:1152   */\n      iszero\n      tag_43\n      jumpi\n        /* \"#utility.yul\":1198:1199   */\n      0x00\n        /* \"#utility.yul\":1195:1196   */\n      dup1\n        /* \"#utility.yul\":1188:1200   */\n      revert\n        /* \"#utility.yul\":1150:1152   */\n    tag_43:\n        /* \"#utility.yul\":1269:1270   */\n      0x00\n        /* \"#utility.yul\":1258:1267   */\n      dup3\n        /* \"#utility.yul\":1254:1271   */\n      add\n        /* \"#utility.yul\":1241:1272   */\n      calldataload\n        /* \"#utility.yul\":1299:1317   */\n      0xffffffffffffffff\n        /* \"#utility.yul\":1291:1297   */\n      dup2\n        /* \"#utility.yul\":1288:1318   */\n      gt\n        /* \"#utility.yul\":1285:1287   */\n      iszero\n      tag_44\n      jumpi\n        /* \"#utility.yul\":1331:1332   */\n      0x00\n        /* \"#utility.yul\":1328:1329   */\n      dup1\n        /* \"#utility.yul\":1321:1333   */\n      revert\n        /* \"#utility.yul\":1285:1287   */\n    tag_44:\n        /* \"#utility.yul\":1359:1422   */\n      tag_45\n        /* \"#utility.yul\":1414:1421   */\n      dup5\n        /* \"#utility.yul\":1405:1411   */\n      dup3\n        /* \"#utility.yul\":1394:1403   */\n      dup6\n        /* \"#utility.yul\":1390:1412   */\n      add\n        /* \"#utility.yul\":1359:1422   */\n      tag_35\n      jump\t// in\n    tag_45:\n        /* \"#utility.yul\":1349:1422   */\n      swap2\n      pop\n        /* \"#utility.yul\":1212:1432   */\n      pop\n        /* \"#utility.yul\":1140:1439   */\n      swap3\n      swap2\n      pop\n      pop\n      jump\t// out\n        /* \"#utility.yul\":1445:1563   */\n    tag_46:\n        /* \"#utility.yul\":1532:1556   */\n      tag_48\n        /* \"#utility.yul\":1550:1555   */\n      dup2\n        /* \"#utility.yul\":1532:1556   */\n      tag_49\n      jump\t// in\n    tag_48:\n        /* \"#utility.yul\":1527:1530   */\n      dup3\n        /* \"#utility.yul\":1520:1557   */\n      mstore\n        /* \"#utility.yul\":1510:1563   */\n      pop\n      pop\n      jump\t// out\n        /* \"#utility.yul\":1569:1791   */\n    tag_10:\n        /* \"#utility.yul\":1662:1666   */\n      0x00\n        /* \"#utility.yul\":1700:1702   */\n      0x20\n        /* \"#utility.yul\":1689:1698   */\n      dup3\n        /* \"#utility.yul\":1685:1703   */\n      add\n        /* \"#utility.yul\":1677:1703   */\n      swap1\n      pop\n        /* \"#utility.yul\":1713:1784   */\n      tag_51\n        /* \"#utility.yul\":1781:1782   */\n      0x00\n        /* \"#utility.yul\":1770:1779   */\n      dup4\n        /* \"#utility.yul\":1766:1783   */\n      add\n        /* \"#utility.yul\":1757:1763   */\n      dup5\n        /* \"#utility.yul\":1713:1784   */\n      tag_46\n      jump\t// in\n    tag_51:\n        /* \"#utility.yul\":1667:1791   */\n      swap3\n      swap2\n      pop\n      pop\n      jump\t// out\n        /* \"#utility.yul\":1797:2129   */\n    tag_19:\n        /* \"#utility.yul\":1918:1922   */\n      0x00\n        /* \"#utility.yul\":1956:1958   */\n      0x40\n        /* \"#utility.yul\":1945:1954   */\n      dup3\n        /* \"#utility.yul\":1941:1959   */\n      add\n        /* \"#utility.yul\":1933:1959   */\n      swap1\n      pop\n        /* \"#utility.yul\":1969:2040   */\n      tag_53\n        /* \"#utility.yul\":2037:2038   */\n      0x00\n        /* \"#utility.yul\":2026:2035   */\n      dup4\n        /* \"#utility.yul\":2022:2039   */\n      add\n        /* \"#utility.yul\":2013:2019   */\n      dup6\n        /* \"#utility.yul\":1969:2040   */\n      tag_46\n      jump\t// in\n    tag_53:\n        /* \"#utility.yul\":2050:2122   */\n      tag_54\n        /* \"#utility.yul\":2118:2120   */\n      0x20\n        /* \"#utility.yul\":2107:2116   */\n      dup4\n        /* \"#utility.yul\":2103:2121   */\n      add\n        /* \"#utility.yul\":2094:2100   */\n      dup5\n        /* \"#utility.yul\":2050:2122   */\n      tag_46\n      jump\t// in\n    tag_54:\n        /* \"#utility.yul\":1923:2129   */\n      swap4\n      swap3\n      pop\n      pop\n      pop\n      jump\t// out\n        /* \"#utility.yul\":2135:2264   */\n    tag_27:\n        /* \"#utility.yul\":2169:2175   */\n      0x00\n        /* \"#utility.yul\":2196:2216   */\n      tag_56\n      tag_57\n      jump\t// in\n    tag_56:\n        /* \"#utility.yul\":2186:2216   */\n      swap1\n      pop\n        /* \"#utility.yul\":2225:2258   */\n      tag_58\n        /* \"#utility.yul\":2253:2257   */\n      dup3\n        /* \"#utility.yul\":2245:2251   */\n      dup3\n        /* \"#utility.yul\":2225:2258   */\n      tag_59\n      jump\t// in\n    tag_58:\n        /* \"#utility.yul\":2176:2264   */\n      swap2\n      swap1\n      pop\n      jump\t// out\n        /* \"#utility.yul\":2270:2345   */\n    tag_57:\n        /* \"#utility.yul\":2303:2309   */\n      0x00\n        /* \"#utility.yul\":2336:2338   */\n      0x40\n        /* \"#utility.yul\":2330:2339   */\n      mload\n        /* \"#utility.yul\":2320:2339   */\n      swap1\n      pop\n        /* \"#utility.yul\":2310:2345   */\n      swap1\n      jump\t// out\n        /* \"#utility.yul\":2351:2659   */\n    tag_26:\n        /* \"#utility.yul\":2413:2417   */\n      0x00\n        /* \"#utility.yul\":2503:2521   */\n      0xffffffffffffffff\n        /* \"#utility.yul\":2495:2501   */\n      dup3\n        /* \"#utility.yul\":2492:2522   */\n      gt\n        /* \"#utility.yul\":2489:2491   */\n      iszero\n      tag_62\n      jumpi\n        /* \"#utility.yul\":2525:2543   */\n      tag_63\n      tag_64\n      jump\t// in\n    tag_63:\n        /* \"#utility.yul\":2489:2491   */\n    tag_62:\n        /* \"#utility.yul\":2563:2592   */\n      tag_65\n        /* \"#utility.yul\":2585:2591   */\n      dup3\n        /* \"#utility.yul\":2563:2592   */\n      tag_66\n      jump\t// in\n    tag_65:\n        /* \"#utility.yul\":2555:2592   */\n      swap1\n      pop\n        /* \"#utility.yul\":2647:2651   */\n      0x20\n        /* \"#utility.yul\":2641:2645   */\n      dup2\n        /* \"#utility.yul\":2637:2652   */\n      add\n        /* \"#utility.yul\":2629:2652   */\n      swap1\n      pop\n        /* \"#utility.yul\":2418:2659   */\n      swap2\n      swap1\n      pop\n      jump\t// out\n        /* \"#utility.yul\":2665:2761   */\n    tag_49:\n        /* \"#utility.yul\":2702:2709   */\n      0x00\n        /* \"#utility.yul\":2731:2755   */\n      tag_68\n        /* \"#utility.yul\":2749:2754   */\n      dup3\n        /* \"#utility.yul\":2731:2755   */\n      tag_69\n      jump\t// in\n    tag_68:\n        /* \"#utility.yul\":2720:2755   */\n      swap1\n      pop\n        /* \"#utility.yul\":2710:2761   */\n      swap2\n      swap1\n      pop\n      jump\t// out\n        /* \"#utility.yul\":2767:2893   */\n    tag_69:\n        /* \"#utility.yul\":2804:2811   */\n      0x00\n        /* \"#utility.yul\":2844:2886   */\n      0xffffffffffffffffffffffffffffffffffffffff\n        /* \"#utility.yul\":2837:2842   */\n      dup3\n        /* \"#utility.yul\":2833:2887   */\n      and\n        /* \"#utility.yul\":2822:2887   */\n      swap1\n      pop\n        /* \"#utility.yul\":2812:2893   */\n      swap2\n      swap1\n      pop\n      jump\t// out\n        /* \"#utility.yul\":2899:3053   */\n    tag_30:\n        /* \"#utility.yul\":2983:2989   */\n      dup3\n        /* \"#utility.yul\":2978:2981   */\n      dup2\n        /* \"#utility.yul\":2973:2976   */\n      dup4\n        /* \"#utility.yul\":2960:2990   */\n      calldatacopy\n        /* \"#utility.yul\":3045:3046   */\n      0x00\n        /* \"#utility.yul\":3036:3042   */\n      dup4\n        /* \"#utility.yul\":3031:3034   */\n      dup4\n        /* \"#utility.yul\":3027:3043   */\n      add\n        /* \"#utility.yul\":3020:3047   */\n      mstore\n        /* \"#utility.yul\":2950:3053   */\n      pop\n      pop\n      pop\n      jump\t// out\n        /* \"#utility.yul\":3059:3340   */\n    tag_59:\n        /* \"#utility.yul\":3142:3169   */\n      tag_73\n        /* \"#utility.yul\":3164:3168   */\n      dup3\n        /* \"#utility.yul\":3142:3169   */\n      tag_66\n      jump\t// in\n    tag_73:\n        /* \"#utility.yul\":3134:3140   */\n      dup2\n        /* \"#utility.yul\":3130:3170   */\n      add\n        /* \"#utility.yul\":3272:3278   */\n      dup2\n        /* \"#utility.yul\":3260:3270   */\n      dup2\n        /* \"#utility.yul\":3257:3279   */\n      lt\n        /* \"#utility.yul\":3236:3254   */\n      0xffffffffffffffff\n        /* \"#utility.yul\":3224:3234   */\n      dup3\n        /* \"#utility.yul\":3221:3255   */\n      gt\n        /* \"#utility.yul\":3218:3280   */\n      or\n        /* \"#utility.yul\":3215:3217   */\n      iszero\n      tag_74\n      jumpi\n        /* \"#utility.yul\":3283:3301   */\n      tag_75\n      tag_64\n      jump\t// in\n    tag_75:\n        /* \"#utility.yul\":3215:3217   */\n    tag_74:\n        /* \"#utility.yul\":3323:3333   */\n      dup1\n        /* \"#utility.yul\":3319:3321   */\n      0x40\n        /* \"#utility.yul\":3312:3334   */\n      mstore\n        /* \"#utility.yul\":3102:3340   */\n      pop\n      pop\n      pop\n      jump\t// out\n        /* \"#utility.yul\":3346:3526   */\n    tag_64:\n        /* \"#utility.yul\":3394:3471   */\n      0x4e487b7100000000000000000000000000000000000000000000000000000000\n        /* \"#utility.yul\":3391:3392   */\n      0x00\n        /* \"#utility.yul\":3384:3472   */\n      mstore\n        /* \"#utility.yul\":3491:3495   */\n      0x41\n        /* \"#utility.yul\":3488:3489   */\n      0x04\n        /* \"#utility.yul\":3481:3496   */\n      mstore\n        /* \"#utility.yul\":3515:3519   */\n      0x24\n        /* \"#utility.yul\":3512:3513   */\n      0x00\n        /* \"#utility.yul\":3505:3520   */\n      revert\n        /* \"#utility.yul\":3532:3634   */\n    tag_66:\n        /* \"#utility.yul\":3573:3579   */\n      0x00\n        /* \"#utility.yul\":3624:3626   */\n      0x1f\n        /* \"#utility.yul\":3620:3627   */\n      not\n        /* \"#utility.yul\":3615:3617   */\n      0x1f\n        /* \"#utility.yul\":3608:3613   */\n      dup4\n        /* \"#utility.yul\":3604:3618   */\n      add\n        /* \"#utility.yul\":3600:3628   */\n      and\n        /* \"#utility.yul\":3590:3628   */\n      swap1\n      pop\n        /* \"#utility.yul\":3580:3634   */\n      swap2\n      swap1\n      pop\n      jump\t// out\n        /* \"#utility.yul\":3640:3762   */\n    tag_34:\n        /* \"#utility.yul\":3713:3737   */\n      tag_79\n        /* \"#utility.yul\":3731:3736   */\n      dup2\n        /* \"#utility.yul\":3713:3737   */\n      tag_49\n      jump\t// in\n    tag_79:\n        /* \"#utility.yul\":3706:3711   */\n      dup2\n        /* \"#utility.yul\":3703:3738   */\n      eq\n        /* \"#utility.yul\":3693:3695   */\n      tag_80\n      jumpi\n        /* \"#utility.yul\":3752:3753   */\n      0x00\n        /* \"#utility.yul\":3749:3750   */\n      dup1\n        /* \"#utility.yul\":3742:3754   */\n      revert\n        /* \"#utility.yul\":3693:3695   */\n    tag_80:\n        /* \"#utility.yul\":3683:3762   */\n      pop\n      jump\t// out\n    stop\n\n    sub_0: assembly {\n            /* \"contracts/cybertron.sol\":448:853  contract autobot {... */\n          mstore(0x40, 0x80)\n            /* \"contracts/cybertron.sol\":700:850  constructor (address _account, address _accountSC){... */\n          callvalue\n          dup1\n          iszero\n          tag_1\n          jumpi\n          0x00\n          dup1\n          revert\n        tag_1:\n          pop\n          mload(0x40)\n          sub(codesize, bytecodeSize)\n          dup1\n          bytecodeSize\n          dup4\n          codecopy\n          dup2\n          dup2\n          add\n          0x40\n          mstore\n          dup2\n          add\n          swap1\n          tag_2\n          swap2\n          swap1\n          tag_3\n          jump\t// in\n        tag_2:\n            /* \"contracts/cybertron.sol\":781:789  _account */\n          dup2\n            /* \"contracts/cybertron.sol\":760:771  propietario */\n          0x00\n            /* \"contracts/cybertron.sol\":760:778  propietario._owner */\n          dup1\n          add\n          0x00\n            /* \"contracts/cybertron.sol\":760:789  propietario._owner = _account */\n          0x0100\n          exp\n          dup2\n          sload\n          dup2\n          0xffffffffffffffffffffffffffffffffffffffff\n          mul\n          not\n          and\n          swap1\n          dup4\n          0xffffffffffffffffffffffffffffffffffffffff\n          and\n          mul\n          or\n          swap1\n          sstore\n          pop\n            /* \"contracts/cybertron.sol\":833:843  _accountSC */\n          dup1\n            /* \"contracts/cybertron.sol\":799:810  propietario */\n          0x00\n            /* \"contracts/cybertron.sol\":799:830  propietario._smartcontractPadre */\n          0x01\n          add\n          0x00\n            /* \"contracts/cybertron.sol\":799:843  propietario._smartcontractPadre = _accountSC */\n          0x0100\n          exp\n          dup2\n          sload\n          dup2\n          0xffffffffffffffffffffffffffffffffffffffff\n          mul\n          not\n          and\n          swap1\n          dup4\n          0xffffffffffffffffffffffffffffffffffffffff\n          and\n          mul\n          or\n          swap1\n          sstore\n          pop\n            /* \"contracts/cybertron.sol\":700:850  constructor (address _account, address _accountSC){... */\n          pop\n          pop\n            /* \"contracts/cybertron.sol\":448:853  contract autobot {... */\n          jump(tag_6)\n            /* \"#utility.yul\":7:150   */\n        tag_8:\n            /* \"#utility.yul\":64:69   */\n          0x00\n            /* \"#utility.yul\":95:101   */\n          dup2\n            /* \"#utility.yul\":89:102   */\n          mload\n            /* \"#utility.yul\":80:102   */\n          swap1\n          pop\n            /* \"#utility.yul\":111:144   */\n          tag_10\n            /* \"#utility.yul\":138:143   */\n          dup2\n            /* \"#utility.yul\":111:144   */\n          tag_11\n          jump\t// in\n        tag_10:\n            /* \"#utility.yul\":70:150   */\n          swap3\n          swap2\n          pop\n          pop\n          jump\t// out\n            /* \"#utility.yul\":156:596   */\n        tag_3:\n            /* \"#utility.yul\":235:241   */\n          0x00\n            /* \"#utility.yul\":243:249   */\n          dup1\n            /* \"#utility.yul\":292:294   */\n          0x40\n            /* \"#utility.yul\":280:289   */\n          dup4\n            /* \"#utility.yul\":271:278   */\n          dup6\n            /* \"#utility.yul\":267:290   */\n          sub\n            /* \"#utility.yul\":263:295   */\n          slt\n            /* \"#utility.yul\":260:262   */\n          iszero\n          tag_13\n          jumpi\n            /* \"#utility.yul\":308:309   */\n          0x00\n            /* \"#utility.yul\":305:306   */\n          dup1\n            /* \"#utility.yul\":298:310   */\n          revert\n            /* \"#utility.yul\":260:262   */\n        tag_13:\n            /* \"#utility.yul\":351:352   */\n          0x00\n            /* \"#utility.yul\":376:440   */\n          tag_14\n            /* \"#utility.yul\":432:439   */\n          dup6\n            /* \"#utility.yul\":423:429   */\n          dup3\n            /* \"#utility.yul\":412:421   */\n          dup7\n            /* \"#utility.yul\":408:430   */\n          add\n            /* \"#utility.yul\":376:440   */\n          tag_8\n          jump\t// in\n        tag_14:\n            /* \"#utility.yul\":366:440   */\n          swap3\n          pop\n            /* \"#utility.yul\":322:450   */\n          pop\n            /* \"#utility.yul\":489:491   */\n          0x20\n            /* \"#utility.yul\":515:579   */\n          tag_15\n            /* \"#utility.yul\":571:578   */\n          dup6\n            /* \"#utility.yul\":562:568   */\n          dup3\n            /* \"#utility.yul\":551:560   */\n          dup7\n            /* \"#utility.yul\":547:569   */\n          add\n            /* \"#utility.yul\":515:579   */\n          tag_8\n          jump\t// in\n        tag_15:\n            /* \"#utility.yul\":505:579   */\n          swap2\n          pop\n            /* \"#utility.yul\":460:589   */\n          pop\n            /* \"#utility.yul\":250:596   */\n          swap3\n          pop\n          swap3\n          swap1\n          pop\n          jump\t// out\n            /* \"#utility.yul\":602:698   */\n        tag_16:\n            /* \"#utility.yul\":639:646   */\n          0x00\n            /* \"#utility.yul\":668:692   */\n          tag_18\n            /* \"#utility.yul\":686:691   */\n          dup3\n            /* \"#utility.yul\":668:692   */\n          tag_19\n          jump\t// in\n        tag_18:\n            /* \"#utility.yul\":657:692   */\n          swap1\n          pop\n            /* \"#utility.yul\":647:698   */\n          swap2\n          swap1\n          pop\n          jump\t// out\n            /* \"#utility.yul\":704:830   */\n        tag_19:\n            /* \"#utility.yul\":741:748   */\n          0x00\n            /* \"#utility.yul\":781:823   */\n          0xffffffffffffffffffffffffffffffffffffffff\n            /* \"#utility.yul\":774:779   */\n          dup3\n            /* \"#utility.yul\":770:824   */\n          and\n            /* \"#utility.yul\":759:824   */\n          swap1\n          pop\n            /* \"#utility.yul\":749:830   */\n          swap2\n          swap1\n          pop\n          jump\t// out\n            /* \"#utility.yul\":836:958   */\n        tag_11:\n            /* \"#utility.yul\":909:933   */\n          tag_22\n            /* \"#utility.yul\":927:932   */\n          dup2\n            /* \"#utility.yul\":909:933   */\n          tag_16\n          jump\t// in\n        tag_22:\n            /* \"#utility.yul\":902:907   */\n          dup2\n            /* \"#utility.yul\":899:934   */\n          eq\n            /* \"#utility.yul\":889:891   */\n          tag_23\n          jumpi\n            /* \"#utility.yul\":948:949   */\n          0x00\n            /* \"#utility.yul\":945:946   */\n          dup1\n            /* \"#utility.yul\":938:950   */\n          revert\n            /* \"#utility.yul\":889:891   */\n        tag_23:\n            /* \"#utility.yul\":879:958   */\n          pop\n          jump\t// out\n            /* \"contracts/cybertron.sol\":448:853  contract autobot {... */\n        tag_6:\n          dataSize(sub_0)\n          dup1\n          dataOffset(sub_0)\n          0x00\n          codecopy\n          0x00\n          return\n        stop\n\n        sub_0: assembly {\n                /* \"contracts/cybertron.sol\":448:853  contract autobot {... */\n              mstore(0x40, 0x80)\n              callvalue\n              dup1\n              iszero\n              tag_1\n              jumpi\n              0x00\n              dup1\n              revert\n            tag_1:\n              pop\n              jumpi(tag_2, lt(calldatasize, 0x04))\n              shr(0xe0, calldataload(0x00))\n              dup1\n              0x3c4f81cd\n              eq\n              tag_3\n              jumpi\n            tag_2:\n              0x00\n              dup1\n              revert\n                /* \"contracts/cybertron.sol\":516:540  Owner public propietario */\n            tag_3:\n              tag_4\n              tag_5\n              jump\t// in\n            tag_4:\n              mload(0x40)\n              tag_6\n              swap4\n              swap3\n              swap2\n              swap1\n              tag_7\n              jump\t// in\n            tag_6:\n              mload(0x40)\n              dup1\n              swap2\n              sub\n              swap1\n              return\n            tag_5:\n              0x00\n              dup1\n              0x00\n              add\n              0x00\n              swap1\n              sload\n              swap1\n              0x0100\n              exp\n              swap1\n              div\n              0xffffffffffffffffffffffffffffffffffffffff\n              and\n              swap1\n              dup1\n              0x01\n              add\n              0x00\n              swap1\n              sload\n              swap1\n              0x0100\n              exp\n              swap1\n              div\n              0xffffffffffffffffffffffffffffffffffffffff\n              and\n              swap1\n              dup1\n              0x02\n              add\n              dup1\n              sload\n              tag_8\n              swap1\n              tag_9\n              jump\t// in\n            tag_8:\n              dup1\n              0x1f\n              add\n              0x20\n              dup1\n              swap2\n              div\n              mul\n              0x20\n              add\n              mload(0x40)\n              swap1\n              dup2\n              add\n              0x40\n              mstore\n              dup1\n              swap3\n              swap2\n              swap1\n              dup2\n              dup2\n              mstore\n              0x20\n              add\n              dup3\n              dup1\n              sload\n              tag_10\n              swap1\n              tag_9\n              jump\t// in\n            tag_10:\n              dup1\n              iszero\n              tag_11\n              jumpi\n              dup1\n              0x1f\n              lt\n              tag_12\n              jumpi\n              0x0100\n              dup1\n              dup4\n              sload\n              div\n              mul\n              dup4\n              mstore\n              swap2\n              0x20\n              add\n              swap2\n              jump(tag_11)\n            tag_12:\n              dup3\n              add\n              swap2\n              swap1\n              0x00\n              mstore\n              keccak256(0x00, 0x20)\n              swap1\n            tag_13:\n              dup2\n              sload\n              dup2\n              mstore\n              swap1\n              0x01\n              add\n              swap1\n              0x20\n              add\n              dup1\n              dup4\n              gt\n              tag_13\n              jumpi\n              dup3\n              swap1\n              sub\n              0x1f\n              and\n              dup3\n              add\n              swap2\n            tag_11:\n              pop\n              pop\n              pop\n              pop\n              pop\n              swap1\n              pop\n              dup4\n              jump\t// out\n                /* \"#utility.yul\":7:125   */\n            tag_15:\n                /* \"#utility.yul\":94:118   */\n              tag_17\n                /* \"#utility.yul\":112:117   */\n              dup2\n                /* \"#utility.yul\":94:118   */\n              tag_18\n              jump\t// in\n            tag_17:\n                /* \"#utility.yul\":89:92   */\n              dup3\n                /* \"#utility.yul\":82:119   */\n              mstore\n                /* \"#utility.yul\":72:125   */\n              pop\n              pop\n              jump\t// out\n                /* \"#utility.yul\":131:495   */\n            tag_19:\n                /* \"#utility.yul\":219:222   */\n              0x00\n                /* \"#utility.yul\":247:286   */\n              tag_21\n                /* \"#utility.yul\":280:285   */\n              dup3\n                /* \"#utility.yul\":247:286   */\n              tag_22\n              jump\t// in\n            tag_21:\n                /* \"#utility.yul\":302:373   */\n              tag_23\n                /* \"#utility.yul\":366:372   */\n              dup2\n                /* \"#utility.yul\":361:364   */\n              dup6\n                /* \"#utility.yul\":302:373   */\n              tag_24\n              jump\t// in\n            tag_23:\n                /* \"#utility.yul\":295:373   */\n              swap4\n              pop\n                /* \"#utility.yul\":382:434   */\n              tag_25\n                /* \"#utility.yul\":427:433   */\n              dup2\n                /* \"#utility.yul\":422:425   */\n              dup6\n                /* \"#utility.yul\":415:419   */\n              0x20\n                /* \"#utility.yul\":408:413   */\n              dup7\n                /* \"#utility.yul\":404:420   */\n              add\n                /* \"#utility.yul\":382:434   */\n              tag_26\n              jump\t// in\n            tag_25:\n                /* \"#utility.yul\":459:488   */\n              tag_27\n                /* \"#utility.yul\":481:487   */\n              dup2\n                /* \"#utility.yul\":459:488   */\n              tag_28\n              jump\t// in\n            tag_27:\n                /* \"#utility.yul\":454:457   */\n              dup5\n                /* \"#utility.yul\":450:489   */\n              add\n                /* \"#utility.yul\":443:489   */\n              swap2\n              pop\n                /* \"#utility.yul\":223:495   */\n              pop\n              swap3\n              swap2\n              pop\n              pop\n              jump\t// out\n                /* \"#utility.yul\":501:1034   */\n            tag_7:\n                /* \"#utility.yul\":670:674   */\n              0x00\n                /* \"#utility.yul\":708:710   */\n              0x60\n                /* \"#utility.yul\":697:706   */\n              dup3\n                /* \"#utility.yul\":693:711   */\n              add\n                /* \"#utility.yul\":685:711   */\n              swap1\n              pop\n                /* \"#utility.yul\":721:792   */\n              tag_30\n                /* \"#utility.yul\":789:790   */\n              0x00\n                /* \"#utility.yul\":778:787   */\n              dup4\n                /* \"#utility.yul\":774:791   */\n              add\n                /* \"#utility.yul\":765:771   */\n              dup7\n                /* \"#utility.yul\":721:792   */\n              tag_15\n              jump\t// in\n            tag_30:\n                /* \"#utility.yul\":802:874   */\n              tag_31\n                /* \"#utility.yul\":870:872   */\n              0x20\n                /* \"#utility.yul\":859:868   */\n              dup4\n                /* \"#utility.yul\":855:873   */\n              add\n                /* \"#utility.yul\":846:852   */\n              dup6\n                /* \"#utility.yul\":802:874   */\n              tag_15\n              jump\t// in\n            tag_31:\n                /* \"#utility.yul\":921:930   */\n              dup2\n                /* \"#utility.yul\":915:919   */\n              dup2\n                /* \"#utility.yul\":911:931   */\n              sub\n                /* \"#utility.yul\":906:908   */\n              0x40\n                /* \"#utility.yul\":895:904   */\n              dup4\n                /* \"#utility.yul\":891:909   */\n              add\n                /* \"#utility.yul\":884:932   */\n              mstore\n                /* \"#utility.yul\":949:1027   */\n              tag_32\n                /* \"#utility.yul\":1022:1026   */\n              dup2\n                /* \"#utility.yul\":1013:1019   */\n              dup5\n                /* \"#utility.yul\":949:1027   */\n              tag_19\n              jump\t// in\n            tag_32:\n                /* \"#utility.yul\":941:1027   */\n              swap1\n              pop\n                /* \"#utility.yul\":675:1034   */\n              swap5\n              swap4\n              pop\n              pop\n              pop\n              pop\n              jump\t// out\n                /* \"#utility.yul\":1040:1139   */\n            tag_22:\n                /* \"#utility.yul\":1092:1098   */\n              0x00\n                /* \"#utility.yul\":1126:1131   */\n              dup2\n                /* \"#utility.yul\":1120:1132   */\n              mload\n                /* \"#utility.yul\":1110:1132   */\n              swap1\n              pop\n                /* \"#utility.yul\":1099:1139   */\n              swap2\n              swap1\n              pop\n              jump\t// out\n                /* \"#utility.yul\":1145:1314   */\n            tag_24:\n                /* \"#utility.yul\":1229:1240   */\n              0x00\n                /* \"#utility.yul\":1263:1269   */\n              dup3\n                /* \"#utility.yul\":1258:1261   */\n              dup3\n                /* \"#utility.yul\":1251:1270   */\n              mstore\n                /* \"#utility.yul\":1303:1307   */\n              0x20\n                /* \"#utility.yul\":1298:1301   */\n              dup3\n                /* \"#utility.yul\":1294:1308   */\n              add\n                /* \"#utility.yul\":1279:1308   */\n              swap1\n              pop\n                /* \"#utility.yul\":1241:1314   */\n              swap3\n              swap2\n              pop\n              pop\n              jump\t// out\n                /* \"#utility.yul\":1320:1416   */\n            tag_18:\n                /* \"#utility.yul\":1357:1364   */\n              0x00\n                /* \"#utility.yul\":1386:1410   */\n              tag_36\n                /* \"#utility.yul\":1404:1409   */\n              dup3\n                /* \"#utility.yul\":1386:1410   */\n              tag_37\n              jump\t// in\n            tag_36:\n                /* \"#utility.yul\":1375:1410   */\n              swap1\n              pop\n                /* \"#utility.yul\":1365:1416   */\n              swap2\n              swap1\n              pop\n              jump\t// out\n                /* \"#utility.yul\":1422:1548   */\n            tag_37:\n                /* \"#utility.yul\":1459:1466   */\n              0x00\n                /* \"#utility.yul\":1499:1541   */\n              0xffffffffffffffffffffffffffffffffffffffff\n                /* \"#utility.yul\":1492:1497   */\n              dup3\n                /* \"#utility.yul\":1488:1542   */\n              and\n                /* \"#utility.yul\":1477:1542   */\n              swap1\n              pop\n                /* \"#utility.yul\":1467:1548   */\n              swap2\n              swap1\n              pop\n              jump\t// out\n                /* \"#utility.yul\":1554:1861   */\n            tag_26:\n                /* \"#utility.yul\":1622:1623   */\n              0x00\n                /* \"#utility.yul\":1632:1745   */\n            tag_40:\n                /* \"#utility.yul\":1646:1652   */\n              dup4\n                /* \"#utility.yul\":1643:1644   */\n              dup2\n                /* \"#utility.yul\":1640:1653   */\n              lt\n                /* \"#utility.yul\":1632:1745   */\n              iszero\n              tag_42\n              jumpi\n                /* \"#utility.yul\":1731:1732   */\n              dup1\n                /* \"#utility.yul\":1726:1729   */\n              dup3\n                /* \"#utility.yul\":1722:1733   */\n              add\n                /* \"#utility.yul\":1716:1734   */\n              mload\n                /* \"#utility.yul\":1712:1713   */\n              dup2\n                /* \"#utility.yul\":1707:1710   */\n              dup5\n                /* \"#utility.yul\":1703:1714   */\n              add\n                /* \"#utility.yul\":1696:1735   */\n              mstore\n                /* \"#utility.yul\":1668:1670   */\n              0x20\n                /* \"#utility.yul\":1665:1666   */\n              dup2\n                /* \"#utility.yul\":1661:1671   */\n              add\n                /* \"#utility.yul\":1656:1671   */\n              swap1\n              pop\n                /* \"#utility.yul\":1632:1745   */\n              jump(tag_40)\n            tag_42:\n                /* \"#utility.yul\":1763:1769   */\n              dup4\n                /* \"#utility.yul\":1760:1761   */\n              dup2\n                /* \"#utility.yul\":1757:1770   */\n              gt\n                /* \"#utility.yul\":1754:1756   */\n              iszero\n              tag_43\n              jumpi\n                /* \"#utility.yul\":1843:1844   */\n              0x00\n                /* \"#utility.yul\":1834:1840   */\n              dup5\n                /* \"#utility.yul\":1829:1832   */\n              dup5\n                /* \"#utility.yul\":1825:1841   */\n              add\n                /* \"#utility.yul\":1818:1845   */\n              mstore\n                /* \"#utility.yul\":1754:1756   */\n            tag_43:\n                /* \"#utility.yul\":1603:1861   */\n              pop\n              pop\n              pop\n              pop\n              jump\t// out\n                /* \"#utility.yul\":1867:2187   */\n            tag_9:\n                /* \"#utility.yul\":1911:1917   */\n              0x00\n                /* \"#utility.yul\":1948:1949   */\n              0x02\n                /* \"#utility.yul\":1942:1946   */\n              dup3\n                /* \"#utility.yul\":1938:1950   */\n              div\n                /* \"#utility.yul\":1928:1950   */\n              swap1\n              pop\n                /* \"#utility.yul\":1995:1996   */\n              0x01\n                /* \"#utility.yul\":1989:1993   */\n              dup3\n                /* \"#utility.yul\":1985:1997   */\n              and\n                /* \"#utility.yul\":2016:2034   */\n              dup1\n                /* \"#utility.yul\":2006:2008   */\n              tag_45\n              jumpi\n                /* \"#utility.yul\":2072:2076   */\n              0x7f\n                /* \"#utility.yul\":2064:2070   */\n              dup3\n                /* \"#utility.yul\":2060:2077   */\n              and\n                /* \"#utility.yul\":2050:2077   */\n              swap2\n              pop\n                /* \"#utility.yul\":2006:2008   */\n            tag_45:\n                /* \"#utility.yul\":2134:2136   */\n              0x20\n                /* \"#utility.yul\":2126:2132   */\n              dup3\n                /* \"#utility.yul\":2123:2137   */\n              lt\n                /* \"#utility.yul\":2103:2121   */\n              dup2\n                /* \"#utility.yul\":2100:2138   */\n              eq\n                /* \"#utility.yul\":2097:2099   */\n              iszero\n              tag_46\n              jumpi\n                /* \"#utility.yul\":2153:2171   */\n              tag_47\n              tag_48\n              jump\t// in\n            tag_47:\n                /* \"#utility.yul\":2097:2099   */\n            tag_46:\n                /* \"#utility.yul\":1918:2187   */\n              pop\n              swap2\n              swap1\n              pop\n              jump\t// out\n                /* \"#utility.yul\":2193:2373   */\n            tag_48:\n                /* \"#utility.yul\":2241:2318   */\n              0x4e487b7100000000000000000000000000000000000000000000000000000000\n                /* \"#utility.yul\":2238:2239   */\n              0x00\n                /* \"#utility.yul\":2231:2319   */\n              mstore\n                /* \"#utility.yul\":2338:2342   */\n              0x22\n                /* \"#utility.yul\":2335:2336   */\n              0x04\n                /* \"#utility.yul\":2328:2343   */\n              mstore\n                /* \"#utility.yul\":2362:2366   */\n              0x24\n                /* \"#utility.yul\":2359:2360   */\n              0x00\n                /* \"#utility.yul\":2352:2367   */\n              revert\n                /* \"#utility.yul\":2379:2481   */\n            tag_28:\n                /* \"#utility.yul\":2420:2426   */\n              0x00\n                /* \"#utility.yul\":2471:2473   */\n              0x1f\n                /* \"#utility.yul\":2467:2474   */\n              not\n                /* \"#utility.yul\":2462:2464   */\n              0x1f\n                /* \"#utility.yul\":2455:2460   */\n              dup4\n                /* \"#utility.yul\":2451:2465   */\n              add\n                /* \"#utility.yul\":2447:2475   */\n              and\n                /* \"#utility.yul\":2437:2475   */\n              swap1\n              pop\n                /* \"#utility.yul\":2427:2481   */\n              swap2\n              swap1\n              pop\n              jump\t// out\n\n            auxdata: 0xa2646970667358221220e3e99b34485b42649181abaeb51c9d548e2b3765f9b506838a09ef5319b2612a64736f6c63430008040033\n        }\n    }\n\n    auxdata: 0xa264697066735822122010136ce1340f461575bbbde1831d884c222b2ec563c00d3d18502728e8e9ee7b64736f6c63430008040033\n}\n",
				"bytecode": {
					"linkReferences": {},
					"object": "608060405234801561001057600080fd5b50610859806100206000396000f3fe608060405234801561001057600080fd5b50600436106100365760003560e01c806317b87d801461003b5780639d96f2001461006b575b600080fd5b610055600480360381019061005091906101ff565b610087565b6040516100629190610278565b60405180910390f35b61008560048036038101906100809190610228565b6100ba565b005b60006020528060005260406000206000915054906101000a900473ffffffffffffffffffffffffffffffffffffffff1681565b600033306040516100ca90610175565b6100d5929190610293565b604051809103906000f0801580156100f1573d6000803e3d6000fd5b509050806000803373ffffffffffffffffffffffffffffffffffffffff1673ffffffffffffffffffffffffffffffffffffffff16815260200190815260200160002060006101000a81548173ffffffffffffffffffffffffffffffffffffffff021916908373ffffffffffffffffffffffffffffffffffffffff1602179055505050565b610448806103dc83390190565b6000610195610190846102e1565b6102bc565b9050828152602081018484840111156101ad57600080fd5b6101b8848285610344565b509392505050565b6000813590506101cf816103c4565b92915050565b600082601f8301126101e657600080fd5b81356101f6848260208601610182565b91505092915050565b60006020828403121561021157600080fd5b600061021f848285016101c0565b91505092915050565b60006020828403121561023a57600080fd5b600082013567ffffffffffffffff81111561025457600080fd5b610260848285016101d5565b91505092915050565b61027281610312565b82525050565b600060208201905061028d6000830184610269565b92915050565b60006040820190506102a86000830185610269565b6102b56020830184610269565b9392505050565b60006102c66102d7565b90506102d28282610353565b919050565b6000604051905090565b600067ffffffffffffffff8211156102fc576102fb610384565b5b610305826103b3565b9050602081019050919050565b600061031d82610324565b9050919050565b600073ffffffffffffffffffffffffffffffffffffffff82169050919050565b82818337600083830152505050565b61035c826103b3565b810181811067ffffffffffffffff8211171561037b5761037a610384565b5b80604052505050565b7f4e487b7100000000000000000000000000000000000000000000000000000000600052604160045260246000fd5b6000601f19601f8301169050919050565b6103cd81610312565b81146103d857600080fd5b5056fe608060405234801561001057600080fd5b50604051610448380380610448833981810160405281019061003291906100d5565b816000800160006101000a81548173ffffffffffffffffffffffffffffffffffffffff021916908373ffffffffffffffffffffffffffffffffffffffff16021790555080600060010160006101000a81548173ffffffffffffffffffffffffffffffffffffffff021916908373ffffffffffffffffffffffffffffffffffffffff160217905550505061015a565b6000815190506100cf81610143565b92915050565b600080604083850312156100e857600080fd5b60006100f6858286016100c0565b9250506020610107858286016100c0565b9150509250929050565b600061011c82610123565b9050919050565b600073ffffffffffffffffffffffffffffffffffffffff82169050919050565b61014c81610111565b811461015757600080fd5b50565b6102df806101696000396000f3fe608060405234801561001057600080fd5b506004361061002b5760003560e01c80633c4f81cd14610030575b600080fd5b610038610050565b60405161004793929190610178565b60405180910390f35b60008060000160009054906101000a900473ffffffffffffffffffffffffffffffffffffffff16908060010160009054906101000a900473ffffffffffffffffffffffffffffffffffffffff16908060020180546100ad90610237565b80601f01602080910402602001604051908101604052809291908181526020018280546100d990610237565b80156101265780601f106100fb57610100808354040283529160200191610126565b820191906000526020600020905b81548152906001019060200180831161010957829003601f168201915b5050505050905083565b610139816101d2565b82525050565b600061014a826101b6565b61015481856101c1565b9350610164818560208601610204565b61016d81610298565b840191505092915050565b600060608201905061018d6000830186610130565b61019a6020830185610130565b81810360408301526101ac818461013f565b9050949350505050565b600081519050919050565b600082825260208201905092915050565b60006101dd826101e4565b9050919050565b600073ffffffffffffffffffffffffffffffffffffffff82169050919050565b60005b83811015610222578082015181840152602081019050610207565b83811115610231576000848401525b50505050565b6000600282049050600182168061024f57607f821691505b6020821081141561026357610262610269565b5b50919050565b7f4e487b7100000000000000000000000000000000000000000000000000000000600052602260045260246000fd5b6000601f19601f830116905091905056fea2646970667358221220e3e99b34485b42649181abaeb51c9d548e2b3765f9b506838a09ef5319b2612a64736f6c63430008040033a264697066735822122010136ce1340f461575bbbde1831d884c222b2ec563c00d3d18502728e8e9ee7b64736f6c63430008040033",
					"opcodes": "PUSH1 0x80 PUSH1 0x40 MSTORE CALLVALUE DUP1 ISZERO PUSH2 0x10 JUMPI PUSH1 0x0 DUP1 REVERT JUMPDEST POP PUSH2 0x859 DUP1 PUSH2 0x20 PUSH1 0x0 CODECOPY PUSH1 0x0 RETURN INVALID PUSH1 0x80 PUSH1 0x40 MSTORE CALLVALUE DUP1 ISZERO PUSH2 0x10 JUMPI PUSH1 0x0 DUP1 REVERT JUMPDEST POP PUSH1 0x4 CALLDATASIZE LT PUSH2 0x36 JUMPI PUSH1 0x0 CALLDATALOAD PUSH1 0xE0 SHR DUP1 PUSH4 0x17B87D80 EQ PUSH2 0x3B JUMPI DUP1 PUSH4 0x9D96F200 EQ PUSH2 0x6B JUMPI JUMPDEST PUSH1 0x0 DUP1 REVERT JUMPDEST PUSH2 0x55 PUSH1 0x4 DUP1 CALLDATASIZE SUB DUP2 ADD SWAP1 PUSH2 0x50 SWAP2 SWAP1 PUSH2 0x1FF JUMP JUMPDEST PUSH2 0x87 JUMP JUMPDEST PUSH1 0x40 MLOAD PUSH2 0x62 SWAP2 SWAP1 PUSH2 0x278 JUMP JUMPDEST PUSH1 0x40 MLOAD DUP1 SWAP2 SUB SWAP1 RETURN JUMPDEST PUSH2 0x85 PUSH1 0x4 DUP1 CALLDATASIZE SUB DUP2 ADD SWAP1 PUSH2 0x80 SWAP2 SWAP1 PUSH2 0x228 JUMP JUMPDEST PUSH2 0xBA JUMP JUMPDEST STOP JUMPDEST PUSH1 0x0 PUSH1 0x20 MSTORE DUP1 PUSH1 0x0 MSTORE PUSH1 0x40 PUSH1 0x0 KECCAK256 PUSH1 0x0 SWAP2 POP SLOAD SWAP1 PUSH2 0x100 EXP SWAP1 DIV PUSH20 0xFFFFFFFFFFFFFFFFFFFFFFFFFFFFFFFFFFFFFFFF AND DUP2 JUMP JUMPDEST PUSH1 0x0 CALLER ADDRESS PUSH1 0x40 MLOAD PUSH2 0xCA SWAP1 PUSH2 0x175 JUMP JUMPDEST PUSH2 0xD5 SWAP3 SWAP2 SWAP1 PUSH2 0x293 JUMP JUMPDEST PUSH1 0x40 MLOAD DUP1 SWAP2 SUB SWAP1 PUSH1 0x0 CREATE DUP1 ISZERO DUP1 ISZERO PUSH2 0xF1 JUMPI RETURNDATASIZE PUSH1 0x0 DUP1 RETURNDATACOPY RETURNDATASIZE PUSH1 0x0 REVERT JUMPDEST POP SWAP1 POP DUP1 PUSH1 0x0 DUP1 CALLER PUSH20 0xFFFFFFFFFFFFFFFFFFFFFFFFFFFFFFFFFFFFFFFF AND PUSH20 0xFFFFFFFFFFFFFFFFFFFFFFFFFFFFFFFFFFFFFFFF AND DUP2 MSTORE PUSH1 0x20 ADD SWAP1 DUP2 MSTORE PUSH1 0x20 ADD PUSH1 0x0 KECCAK256 PUSH1 0x0 PUSH2 0x100 EXP DUP2 SLOAD DUP2 PUSH20 0xFFFFFFFFFFFFFFFFFFFFFFFFFFFFFFFFFFFFFFFF MUL NOT AND SWAP1 DUP4 PUSH20 0xFFFFFFFFFFFFFFFFFFFFFFFFFFFFFFFFFFFFFFFF AND MUL OR SWAP1 SSTORE POP POP POP JUMP JUMPDEST PUSH2 0x448 DUP1 PUSH2 0x3DC DUP4 CODECOPY ADD SWAP1 JUMP JUMPDEST PUSH1 0x0 PUSH2 0x195 PUSH2 0x190 DUP5 PUSH2 0x2E1 JUMP JUMPDEST PUSH2 0x2BC JUMP JUMPDEST SWAP1 POP DUP3 DUP2 MSTORE PUSH1 0x20 DUP2 ADD DUP5 DUP5 DUP5 ADD GT ISZERO PUSH2 0x1AD JUMPI PUSH1 0x0 DUP1 REVERT JUMPDEST PUSH2 0x1B8 DUP5 DUP3 DUP6 PUSH2 0x344 JUMP JUMPDEST POP SWAP4 SWAP3 POP POP POP JUMP JUMPDEST PUSH1 0x0 DUP2 CALLDATALOAD SWAP1 POP PUSH2 0x1CF DUP2 PUSH2 0x3C4 JUMP JUMPDEST SWAP3 SWAP2 POP POP JUMP JUMPDEST PUSH1 0x0 DUP3 PUSH1 0x1F DUP4 ADD SLT PUSH2 0x1E6 JUMPI PUSH1 0x0 DUP1 REVERT JUMPDEST DUP2 CALLDATALOAD PUSH2 0x1F6 DUP5 DUP3 PUSH1 0x20 DUP7 ADD PUSH2 0x182 JUMP JUMPDEST SWAP2 POP POP SWAP3 SWAP2 POP POP JUMP JUMPDEST PUSH1 0x0 PUSH1 0x20 DUP3 DUP5 SUB SLT ISZERO PUSH2 0x211 JUMPI PUSH1 0x0 DUP1 REVERT JUMPDEST PUSH1 0x0 PUSH2 0x21F DUP5 DUP3 DUP6 ADD PUSH2 0x1C0 JUMP JUMPDEST SWAP2 POP POP SWAP3 SWAP2 POP POP JUMP JUMPDEST PUSH1 0x0 PUSH1 0x20 DUP3 DUP5 SUB SLT ISZERO PUSH2 0x23A JUMPI PUSH1 0x0 DUP1 REVERT JUMPDEST PUSH1 0x0 DUP3 ADD CALLDATALOAD PUSH8 0xFFFFFFFFFFFFFFFF DUP2 GT ISZERO PUSH2 0x254 JUMPI PUSH1 0x0 DUP1 REVERT JUMPDEST PUSH2 0x260 DUP5 DUP3 DUP6 ADD PUSH2 0x1D5 JUMP JUMPDEST SWAP2 POP POP SWAP3 SWAP2 POP POP JUMP JUMPDEST PUSH2 0x272 DUP2 PUSH2 0x312 JUMP JUMPDEST DUP3 MSTORE POP POP JUMP JUMPDEST PUSH1 0x0 PUSH1 0x20 DUP3 ADD SWAP1 POP PUSH2 0x28D PUSH1 0x0 DUP4 ADD DUP5 PUSH2 0x269 JUMP JUMPDEST SWAP3 SWAP2 POP POP JUMP JUMPDEST PUSH1 0x0 PUSH1 0x40 DUP3 ADD SWAP1 POP PUSH2 0x2A8 PUSH1 0x0 DUP4 ADD DUP6 PUSH2 0x269 JUMP JUMPDEST PUSH2 0x2B5 PUSH1 0x20 DUP4 ADD DUP5 PUSH2 0x269 JUMP JUMPDEST SWAP4 SWAP3 POP POP POP JUMP JUMPDEST PUSH1 0x0 PUSH2 0x2C6 PUSH2 0x2D7 JUMP JUMPDEST SWAP1 POP PUSH2 0x2D2 DUP3 DUP3 PUSH2 0x353 JUMP JUMPDEST SWAP2 SWAP1 POP JUMP JUMPDEST PUSH1 0x0 PUSH1 0x40 MLOAD SWAP1 POP SWAP1 JUMP JUMPDEST PUSH1 0x0 PUSH8 0xFFFFFFFFFFFFFFFF DUP3 GT ISZERO PUSH2 0x2FC JUMPI PUSH2 0x2FB PUSH2 0x384 JUMP JUMPDEST JUMPDEST PUSH2 0x305 DUP3 PUSH2 0x3B3 JUMP JUMPDEST SWAP1 POP PUSH1 0x20 DUP2 ADD SWAP1 POP SWAP2 SWAP1 POP JUMP JUMPDEST PUSH1 0x0 PUSH2 0x31D DUP3 PUSH2 0x324 JUMP JUMPDEST SWAP1 POP SWAP2 SWAP1 POP JUMP JUMPDEST PUSH1 0x0 PUSH20 0xFFFFFFFFFFFFFFFFFFFFFFFFFFFFFFFFFFFFFFFF DUP3 AND SWAP1 POP SWAP2 SWAP1 POP JUMP JUMPDEST DUP3 DUP2 DUP4 CALLDATACOPY PUSH1 0x0 DUP4 DUP4 ADD MSTORE POP POP POP JUMP JUMPDEST PUSH2 0x35C DUP3 PUSH2 0x3B3 JUMP JUMPDEST DUP2 ADD DUP2 DUP2 LT PUSH8 0xFFFFFFFFFFFFFFFF DUP3 GT OR ISZERO PUSH2 0x37B JUMPI PUSH2 0x37A PUSH2 0x384 JUMP JUMPDEST JUMPDEST DUP1 PUSH1 0x40 MSTORE POP POP POP JUMP JUMPDEST PUSH32 0x4E487B7100000000000000000000000000000000000000000000000000000000 PUSH1 0x0 MSTORE PUSH1 0x41 PUSH1 0x4 MSTORE PUSH1 0x24 PUSH1 0x0 REVERT JUMPDEST PUSH1 0x0 PUSH1 0x1F NOT PUSH1 0x1F DUP4 ADD AND SWAP1 POP SWAP2 SWAP1 POP JUMP JUMPDEST PUSH2 0x3CD DUP2 PUSH2 0x312 JUMP JUMPDEST DUP2 EQ PUSH2 0x3D8 JUMPI PUSH1 0x0 DUP1 REVERT JUMPDEST POP JUMP INVALID PUSH1 0x80 PUSH1 0x40 MSTORE CALLVALUE DUP1 ISZERO PUSH2 0x10 JUMPI PUSH1 0x0 DUP1 REVERT JUMPDEST POP PUSH1 0x40 MLOAD PUSH2 0x448 CODESIZE SUB DUP1 PUSH2 0x448 DUP4 CODECOPY DUP2 DUP2 ADD PUSH1 0x40 MSTORE DUP2 ADD SWAP1 PUSH2 0x32 SWAP2 SWAP1 PUSH2 0xD5 JUMP JUMPDEST DUP2 PUSH1 0x0 DUP1 ADD PUSH1 0x0 PUSH2 0x100 EXP DUP2 SLOAD DUP2 PUSH20 0xFFFFFFFFFFFFFFFFFFFFFFFFFFFFFFFFFFFFFFFF MUL NOT AND SWAP1 DUP4 PUSH20 0xFFFFFFFFFFFFFFFFFFFFFFFFFFFFFFFFFFFFFFFF AND MUL OR SWAP1 SSTORE POP DUP1 PUSH1 0x0 PUSH1 0x1 ADD PUSH1 0x0 PUSH2 0x100 EXP DUP2 SLOAD DUP2 PUSH20 0xFFFFFFFFFFFFFFFFFFFFFFFFFFFFFFFFFFFFFFFF MUL NOT AND SWAP1 DUP4 PUSH20 0xFFFFFFFFFFFFFFFFFFFFFFFFFFFFFFFFFFFFFFFF AND MUL OR SWAP1 SSTORE POP POP POP PUSH2 0x15A JUMP JUMPDEST PUSH1 0x0 DUP2 MLOAD SWAP1 POP PUSH2 0xCF DUP2 PUSH2 0x143 JUMP JUMPDEST SWAP3 SWAP2 POP POP JUMP JUMPDEST PUSH1 0x0 DUP1 PUSH1 0x40 DUP4 DUP6 SUB SLT ISZERO PUSH2 0xE8 JUMPI PUSH1 0x0 DUP1 REVERT JUMPDEST PUSH1 0x0 PUSH2 0xF6 DUP6 DUP3 DUP7 ADD PUSH2 0xC0 JUMP JUMPDEST SWAP3 POP POP PUSH1 0x20 PUSH2 0x107 DUP6 DUP3 DUP7 ADD PUSH2 0xC0 JUMP JUMPDEST SWAP2 POP POP SWAP3 POP SWAP3 SWAP1 POP JUMP JUMPDEST PUSH1 0x0 PUSH2 0x11C DUP3 PUSH2 0x123 JUMP JUMPDEST SWAP1 POP SWAP2 SWAP1 POP JUMP JUMPDEST PUSH1 0x0 PUSH20 0xFFFFFFFFFFFFFFFFFFFFFFFFFFFFFFFFFFFFFFFF DUP3 AND SWAP1 POP SWAP2 SWAP1 POP JUMP JUMPDEST PUSH2 0x14C DUP2 PUSH2 0x111 JUMP JUMPDEST DUP2 EQ PUSH2 0x157 JUMPI PUSH1 0x0 DUP1 REVERT JUMPDEST POP JUMP JUMPDEST PUSH2 0x2DF DUP1 PUSH2 0x169 PUSH1 0x0 CODECOPY PUSH1 0x0 RETURN INVALID PUSH1 0x80 PUSH1 0x40 MSTORE CALLVALUE DUP1 ISZERO PUSH2 0x10 JUMPI PUSH1 0x0 DUP1 REVERT JUMPDEST POP PUSH1 0x4 CALLDATASIZE LT PUSH2 0x2B JUMPI PUSH1 0x0 CALLDATALOAD PUSH1 0xE0 SHR DUP1 PUSH4 0x3C4F81CD EQ PUSH2 0x30 JUMPI JUMPDEST PUSH1 0x0 DUP1 REVERT JUMPDEST PUSH2 0x38 PUSH2 0x50 JUMP JUMPDEST PUSH1 0x40 MLOAD PUSH2 0x47 SWAP4 SWAP3 SWAP2 SWAP1 PUSH2 0x178 JUMP JUMPDEST PUSH1 0x40 MLOAD DUP1 SWAP2 SUB SWAP1 RETURN JUMPDEST PUSH1 0x0 DUP1 PUSH1 0x0 ADD PUSH1 0x0 SWAP1 SLOAD SWAP1 PUSH2 0x100 EXP SWAP1 DIV PUSH20 0xFFFFFFFFFFFFFFFFFFFFFFFFFFFFFFFFFFFFFFFF AND SWAP1 DUP1 PUSH1 0x1 ADD PUSH1 0x0 SWAP1 SLOAD SWAP1 PUSH2 0x100 EXP SWAP1 DIV PUSH20 0xFFFFFFFFFFFFFFFFFFFFFFFFFFFFFFFFFFFFFFFF AND SWAP1 DUP1 PUSH1 0x2 ADD DUP1 SLOAD PUSH2 0xAD SWAP1 PUSH2 0x237 JUMP JUMPDEST DUP1 PUSH1 0x1F ADD PUSH1 0x20 DUP1 SWAP2 DIV MUL PUSH1 0x20 ADD PUSH1 0x40 MLOAD SWAP1 DUP2 ADD PUSH1 0x40 MSTORE DUP1 SWAP3 SWAP2 SWAP1 DUP2 DUP2 MSTORE PUSH1 0x20 ADD DUP3 DUP1 SLOAD PUSH2 0xD9 SWAP1 PUSH2 0x237 JUMP JUMPDEST DUP1 ISZERO PUSH2 0x126 JUMPI DUP1 PUSH1 0x1F LT PUSH2 0xFB JUMPI PUSH2 0x100 DUP1 DUP4 SLOAD DIV MUL DUP4 MSTORE SWAP2 PUSH1 0x20 ADD SWAP2 PUSH2 0x126 JUMP JUMPDEST DUP3 ADD SWAP2 SWAP1 PUSH1 0x0 MSTORE PUSH1 0x20 PUSH1 0x0 KECCAK256 SWAP1 JUMPDEST DUP2 SLOAD DUP2 MSTORE SWAP1 PUSH1 0x1 ADD SWAP1 PUSH1 0x20 ADD DUP1 DUP4 GT PUSH2 0x109 JUMPI DUP3 SWAP1 SUB PUSH1 0x1F AND DUP3 ADD SWAP2 JUMPDEST POP POP POP POP POP SWAP1 POP DUP4 JUMP JUMPDEST PUSH2 0x139 DUP2 PUSH2 0x1D2 JUMP JUMPDEST DUP3 MSTORE POP POP JUMP JUMPDEST PUSH1 0x0 PUSH2 0x14A DUP3 PUSH2 0x1B6 JUMP JUMPDEST PUSH2 0x154 DUP2 DUP6 PUSH2 0x1C1 JUMP JUMPDEST SWAP4 POP PUSH2 0x164 DUP2 DUP6 PUSH1 0x20 DUP7 ADD PUSH2 0x204 JUMP JUMPDEST PUSH2 0x16D DUP2 PUSH2 0x298 JUMP JUMPDEST DUP5 ADD SWAP2 POP POP SWAP3 SWAP2 POP POP JUMP JUMPDEST PUSH1 0x0 PUSH1 0x60 DUP3 ADD SWAP1 POP PUSH2 0x18D PUSH1 0x0 DUP4 ADD DUP7 PUSH2 0x130 JUMP JUMPDEST PUSH2 0x19A PUSH1 0x20 DUP4 ADD DUP6 PUSH2 0x130 JUMP JUMPDEST DUP2 DUP2 SUB PUSH1 0x40 DUP4 ADD MSTORE PUSH2 0x1AC DUP2 DUP5 PUSH2 0x13F JUMP JUMPDEST SWAP1 POP SWAP5 SWAP4 POP POP POP POP JUMP JUMPDEST PUSH1 0x0 DUP2 MLOAD SWAP1 POP SWAP2 SWAP1 POP JUMP JUMPDEST PUSH1 0x0 DUP3 DUP3 MSTORE PUSH1 0x20 DUP3 ADD SWAP1 POP SWAP3 SWAP2 POP POP JUMP JUMPDEST PUSH1 0x0 PUSH2 0x1DD DUP3 PUSH2 0x1E4 JUMP JUMPDEST SWAP1 POP SWAP2 SWAP1 POP JUMP JUMPDEST PUSH1 0x0 PUSH20 0xFFFFFFFFFFFFFFFFFFFFFFFFFFFFFFFFFFFFFFFF DUP3 AND SWAP1 POP SWAP2 SWAP1 POP JUMP JUMPDEST PUSH1 0x0 JUMPDEST DUP4 DUP2 LT ISZERO PUSH2 0x222 JUMPI DUP1 DUP3 ADD MLOAD DUP2 DUP5 ADD MSTORE PUSH1 0x20 DUP2 ADD SWAP1 POP PUSH2 0x207 JUMP JUMPDEST DUP4 DUP2 GT ISZERO PUSH2 0x231 JUMPI PUSH1 0x0 DUP5 DUP5 ADD MSTORE JUMPDEST POP POP POP POP JUMP JUMPDEST PUSH1 0x0 PUSH1 0x2 DUP3 DIV SWAP1 POP PUSH1 0x1 DUP3 AND DUP1 PUSH2 0x24F JUMPI PUSH1 0x7F DUP3 AND SWAP2 POP JUMPDEST PUSH1 0x20 DUP3 LT DUP2 EQ ISZERO PUSH2 0x263 JUMPI PUSH2 0x262 PUSH2 0x269 JUMP JUMPDEST JUMPDEST POP SWAP2 SWAP1 POP JUMP JUMPDEST PUSH32 0x4E487B7100000000000000000000000000000000000000000000000000000000 PUSH1 0x0 MSTORE PUSH1 0x22 PUSH1 0x4 MSTORE PUSH1 0x24 PUSH1 0x0 REVERT JUMPDEST PUSH1 0x0 PUSH1 0x1F NOT PUSH1 0x1F DUP4 ADD AND SWAP1 POP SWAP2 SWAP1 POP JUMP INVALID LOG2 PUSH5 0x6970667358 0x22 SLT KECCAK256 0xE3 0xE9 SWAP12 CALLVALUE 0x48 JUMPDEST TIMESTAMP PUSH5 0x9181ABAEB5 SHR SWAP14 SLOAD DUP15 0x2B CALLDATACOPY PUSH6 0xF9B506838A09 0xEF MSTORE8 NOT 0xB2 PUSH2 0x2A64 PUSH20 0x6F6C63430008040033A264697066735822122010 SGT PUSH13 0xE1340F461575BBBDE1831D884C 0x22 0x2B 0x2E 0xC5 PUSH4 0xC00D3D18 POP 0x27 0x28 0xE8 0xE9 0xEE PUSH28 0x64736F6C634300080400330000000000000000000000000000000000 "
				},
				"gasEstimates": {
					"creation": {
						"codeDepositCost": "427400",
						"executionCost": "461",
						"totalCost": "427861"
					},
					"external": {
						"Factory(string)": "infinite",
						"personal_contract(address)": "infinite"
					}
				},
				"methodIdentifiers": {
					"Factory(string)": "9d96f200",
					"personal_contract(address)": "17b87d80"
				}
			},
			"storageLayout": {
				"storage": [
					{
						"astId": 5,
						"contract": "contracts/cybertron.sol:prime",
						"label": "personal_contract",
						"offset": 0,
						"slot": "0",
						"type": "t_mapping(t_address,t_address)"
					}
				],
				"types": {
					"t_address": {
						"encoding": "inplace",
						"label": "address",
						"numberOfBytes": "20"
					},
					"t_mapping(t_address,t_address)": {
						"encoding": "mapping",
						"key": "t_address",
						"label": "mapping(address => address)",
						"numberOfBytes": "32",
						"value": "t_address"
					}
				}
			},
			"userdoc": {
				"kind": "user",
				"methods": {},
				"version": 1
			}
		}
	}
}