{
	"contracts/cybertron.sol": {
		"autobot": {
			"abi": [
				{
					"inputs": [
						{
							"internalType": "address",
							"name": "_account",
							"type": "address"
						},
						{
							"internalType": "address",
							"name": "_accountSC",
							"type": "address"
						}
					],
					"stateMutability": "nonpayable",
					"type": "constructor"
				},
				{
					"inputs": [],
					"name": "propietario",
					"outputs": [
						{
							"internalType": "address",
							"name": "_owner",
							"type": "address"
						},
						{
							"internalType": "address",
							"name": "_smartcontractPadre",
							"type": "address"
						},
						{
							"internalType": "string",
							"name": "name",
							"type": "string"
						}
					],
					"stateMutability": "view",
					"type": "function"
				}
			],
			"devdoc": {
				"kind": "dev",
				"methods": {},
				"version": 1
			},
			"evm": {
				"assembly": "    /* \"contracts/cybertron.sol\":430:835  contract autobot {... */\n  mstore(0x40, 0x80)\n    /* \"contracts/cybertron.sol\":682:832  constructor (address _account, address _accountSC){... */\n  callvalue\n  dup1\n  iszero\n  tag_1\n  jumpi\n  0x00\n  dup1\n  revert\ntag_1:\n  pop\n  mload(0x40)\n  sub(codesize, bytecodeSize)\n  dup1\n  bytecodeSize\n  dup4\n  codecopy\n  dup2\n  dup2\n  add\n  0x40\n  mstore\n  dup2\n  add\n  swap1\n  tag_2\n  swap2\n  swap1\n  tag_3\n  jump\t// in\ntag_2:\n    /* \"contracts/cybertron.sol\":763:771  _account */\n  dup2\n    /* \"contracts/cybertron.sol\":742:753  propietario */\n  0x00\n    /* \"contracts/cybertron.sol\":742:760  propietario._owner */\n  dup1\n  add\n  0x00\n    /* \"contracts/cybertron.sol\":742:771  propietario._owner = _account */\n  0x0100\n  exp\n  dup2\n  sload\n  dup2\n  0xffffffffffffffffffffffffffffffffffffffff\n  mul\n  not\n  and\n  swap1\n  dup4\n  0xffffffffffffffffffffffffffffffffffffffff\n  and\n  mul\n  or\n  swap1\n  sstore\n  pop\n    /* \"contracts/cybertron.sol\":815:825  _accountSC */\n  dup1\n    /* \"contracts/cybertron.sol\":781:792  propietario */\n  0x00\n    /* \"contracts/cybertron.sol\":781:812  propietario._smartcontractPadre */\n  0x01\n  add\n  0x00\n    /* \"contracts/cybertron.sol\":781:825  propietario._smartcontractPadre = _accountSC */\n  0x0100\n  exp\n  dup2\n  sload\n  dup2\n  0xffffffffffffffffffffffffffffffffffffffff\n  mul\n  not\n  and\n  swap1\n  dup4\n  0xffffffffffffffffffffffffffffffffffffffff\n  and\n  mul\n  or\n  swap1\n  sstore\n  pop\n    /* \"contracts/cybertron.sol\":682:832  constructor (address _account, address _accountSC){... */\n  pop\n  pop\n    /* \"contracts/cybertron.sol\":430:835  contract autobot {... */\n  jump(tag_6)\n    /* \"#utility.yul\":7:150   */\ntag_8:\n    /* \"#utility.yul\":64:69   */\n  0x00\n    /* \"#utility.yul\":95:101   */\n  dup2\n    /* \"#utility.yul\":89:102   */\n  mload\n    /* \"#utility.yul\":80:102   */\n  swap1\n  pop\n    /* \"#utility.yul\":111:144   */\n  tag_10\n    /* \"#utility.yul\":138:143   */\n  dup2\n    /* \"#utility.yul\":111:144   */\n  tag_11\n  jump\t// in\ntag_10:\n    /* \"#utility.yul\":70:150   */\n  swap3\n  swap2\n  pop\n  pop\n  jump\t// out\n    /* \"#utility.yul\":156:596   */\ntag_3:\n    /* \"#utility.yul\":235:241   */\n  0x00\n    /* \"#utility.yul\":243:249   */\n  dup1\n    /* \"#utility.yul\":292:294   */\n  0x40\n    /* \"#utility.yul\":280:289   */\n  dup4\n    /* \"#utility.yul\":271:278   */\n  dup6\n    /* \"#utility.yul\":267:290   */\n  sub\n    /* \"#utility.yul\":263:295   */\n  slt\n    /* \"#utility.yul\":260:262   */\n  iszero\n  tag_13\n  jumpi\n    /* \"#utility.yul\":308:309   */\n  0x00\n    /* \"#utility.yul\":305:306   */\n  dup1\n    /* \"#utility.yul\":298:310   */\n  revert\n    /* \"#utility.yul\":260:262   */\ntag_13:\n    /* \"#utility.yul\":351:352   */\n  0x00\n    /* \"#utility.yul\":376:440   */\n  tag_14\n    /* \"#utility.yul\":432:439   */\n  dup6\n    /* \"#utility.yul\":423:429   */\n  dup3\n    /* \"#utility.yul\":412:421   */\n  dup7\n    /* \"#utility.yul\":408:430   */\n  add\n    /* \"#utility.yul\":376:440   */\n  tag_8\n  jump\t// in\ntag_14:\n    /* \"#utility.yul\":366:440   */\n  swap3\n  pop\n    /* \"#utility.yul\":322:450   */\n  pop\n    /* \"#utility.yul\":489:491   */\n  0x20\n    /* \"#utility.yul\":515:579   */\n  tag_15\n    /* \"#utility.yul\":571:578   */\n  dup6\n    /* \"#utility.yul\":562:568   */\n  dup3\n    /* \"#utility.yul\":551:560   */\n  dup7\n    /* \"#utility.yul\":547:569   */\n  add\n    /* \"#utility.yul\":515:579   */\n  tag_8\n  jump\t// in\ntag_15:\n    /* \"#utility.yul\":505:579   */\n  swap2\n  pop\n    /* \"#utility.yul\":460:589   */\n  pop\n    /* \"#utility.yul\":250:596   */\n  swap3\n  pop\n  swap3\n  swap1\n  pop\n  jump\t// out\n    /* \"#utility.yul\":602:698   */\ntag_16:\n    /* \"#utility.yul\":639:646   */\n  0x00\n    /* \"#utility.yul\":668:692   */\n  tag_18\n    /* \"#utility.yul\":686:691   */\n  dup3\n    /* \"#utility.yul\":668:692   */\n  tag_19\n  jump\t// in\ntag_18:\n    /* \"#utility.yul\":657:692   */\n  swap1\n  pop\n    /* \"#utility.yul\":647:698   */\n  swap2\n  swap1\n  pop\n  jump\t// out\n    /* \"#utility.yul\":704:830   */\ntag_19:\n    /* \"#utility.yul\":741:748   */\n  0x00\n    /* \"#utility.yul\":781:823   */\n  0xffffffffffffffffffffffffffffffffffffffff\n    /* \"#utility.yul\":774:779   */\n  dup3\n    /* \"#utility.yul\":770:824   */\n  and\n    /* \"#utility.yul\":759:824   */\n  swap1\n  pop\n    /* \"#utility.yul\":749:830   */\n  swap2\n  swap1\n  pop\n  jump\t// out\n    /* \"#utility.yul\":836:958   */\ntag_11:\n    /* \"#utility.yul\":909:933   */\n  tag_22\n    /* \"#utility.yul\":927:932   */\n  dup2\n    /* \"#utility.yul\":909:933   */\n  tag_16\n  jump\t// in\ntag_22:\n    /* \"#utility.yul\":902:907   */\n  dup2\n    /* \"#utility.yul\":899:934   */\n  eq\n    /* \"#utility.yul\":889:891   */\n  tag_23\n  jumpi\n    /* \"#utility.yul\":948:949   */\n  0x00\n    /* \"#utility.yul\":945:946   */\n  dup1\n    /* \"#utility.yul\":938:950   */\n  revert\n    /* \"#utility.yul\":889:891   */\ntag_23:\n    /* \"#utility.yul\":879:958   */\n  pop\n  jump\t// out\n    /* \"contracts/cybertron.sol\":430:835  contract autobot {... */\ntag_6:\n  dataSize(sub_0)\n  dup1\n  dataOffset(sub_0)\n  0x00\n  codecopy\n  0x00\n  return\nstop\n\nsub_0: assembly {\n        /* \"contracts/cybertron.sol\":430:835  contract autobot {... */\n      mstore(0x40, 0x80)\n      callvalue\n      dup1\n      iszero\n      tag_1\n      jumpi\n      0x00\n      dup1\n      revert\n    tag_1:\n      pop\n      jumpi(tag_2, lt(calldatasize, 0x04))\n      shr(0xe0, calldataload(0x00))\n      dup1\n      0x3c4f81cd\n      eq\n      tag_3\n      jumpi\n    tag_2:\n      0x00\n      dup1\n      revert\n        /* \"contracts/cybertron.sol\":498:522  Owner public propietario */\n    tag_3:\n      tag_4\n      tag_5\n      jump\t// in\n    tag_4:\n      mload(0x40)\n      tag_6\n      swap4\n      swap3\n      swap2\n      swap1\n      tag_7\n      jump\t// in\n    tag_6:\n      mload(0x40)\n      dup1\n      swap2\n      sub\n      swap1\n      return\n    tag_5:\n      0x00\n      dup1\n      0x00\n      add\n      0x00\n      swap1\n      sload\n      swap1\n      0x0100\n      exp\n      swap1\n      div\n      0xffffffffffffffffffffffffffffffffffffffff\n      and\n      swap1\n      dup1\n      0x01\n      add\n      0x00\n      swap1\n      sload\n      swap1\n      0x0100\n      exp\n      swap1\n      div\n      0xffffffffffffffffffffffffffffffffffffffff\n      and\n      swap1\n      dup1\n      0x02\n      add\n      dup1\n      sload\n      tag_8\n      swap1\n      tag_9\n      jump\t// in\n    tag_8:\n      dup1\n      0x1f\n      add\n      0x20\n      dup1\n      swap2\n      div\n      mul\n      0x20\n      add\n      mload(0x40)\n      swap1\n      dup2\n      add\n      0x40\n      mstore\n      dup1\n      swap3\n      swap2\n      swap1\n      dup2\n      dup2\n      mstore\n      0x20\n      add\n      dup3\n      dup1\n      sload\n      tag_10\n      swap1\n      tag_9\n      jump\t// in\n    tag_10:\n      dup1\n      iszero\n      tag_11\n      jumpi\n      dup1\n      0x1f\n      lt\n      tag_12\n      jumpi\n      0x0100\n      dup1\n      dup4\n      sload\n      div\n      mul\n      dup4\n      mstore\n      swap2\n      0x20\n      add\n      swap2\n      jump(tag_11)\n    tag_12:\n      dup3\n      add\n      swap2\n      swap1\n      0x00\n      mstore\n      keccak256(0x00, 0x20)\n      swap1\n    tag_13:\n      dup2\n      sload\n      dup2\n      mstore\n      swap1\n      0x01\n      add\n      swap1\n      0x20\n      add\n      dup1\n      dup4\n      gt\n      tag_13\n      jumpi\n      dup3\n      swap1\n      sub\n      0x1f\n      and\n      dup3\n      add\n      swap2\n    tag_11:\n      pop\n      pop\n      pop\n      pop\n      pop\n      swap1\n      pop\n      dup4\n      jump\t// out\n        /* \"#utility.yul\":7:125   */\n    tag_15:\n        /* \"#utility.yul\":94:118   */\n      tag_17\n        /* \"#utility.yul\":112:117   */\n      dup2\n        /* \"#utility.yul\":94:118   */\n      tag_18\n      jump\t// in\n    tag_17:\n        /* \"#utility.yul\":89:92   */\n      dup3\n        /* \"#utility.yul\":82:119   */\n      mstore\n        /* \"#utility.yul\":72:125   */\n      pop\n      pop\n      jump\t// out\n        /* \"#utility.yul\":131:495   */\n    tag_19:\n        /* \"#utility.yul\":219:222   */\n      0x00\n        /* \"#utility.yul\":247:286   */\n      tag_21\n        /* \"#utility.yul\":280:285   */\n      dup3\n        /* \"#utility.yul\":247:286   */\n      tag_22\n      jump\t// in\n    tag_21:\n        /* \"#utility.yul\":302:373   */\n      tag_23\n        /* \"#utility.yul\":366:372   */\n      dup2\n        /* \"#utility.yul\":361:364   */\n      dup6\n        /* \"#utility.yul\":302:373   */\n      tag_24\n      jump\t// in\n    tag_23:\n        /* \"#utility.yul\":295:373   */\n      swap4\n      pop\n        /* \"#utility.yul\":382:434   */\n      tag_25\n        /* \"#utility.yul\":427:433   */\n      dup2\n        /* \"#utility.yul\":422:425   */\n      dup6\n        /* \"#utility.yul\":415:419   */\n      0x20\n        /* \"#utility.yul\":408:413   */\n      dup7\n        /* \"#utility.yul\":404:420   */\n      add\n        /* \"#utility.yul\":382:434   */\n      tag_26\n      jump\t// in\n    tag_25:\n        /* \"#utility.yul\":459:488   */\n      tag_27\n        /* \"#utility.yul\":481:487   */\n      dup2\n        /* \"#utility.yul\":459:488   */\n      tag_28\n      jump\t// in\n    tag_27:\n        /* \"#utility.yul\":454:457   */\n      dup5\n        /* \"#utility.yul\":450:489   */\n      add\n        /* \"#utility.yul\":443:489   */\n      swap2\n      pop\n        /* \"#utility.yul\":223:495   */\n      pop\n      swap3\n      swap2\n      pop\n      pop\n      jump\t// out\n        /* \"#utility.yul\":501:1034   */\n    tag_7:\n        /* \"#utility.yul\":670:674   */\n      0x00\n        /* \"#utility.yul\":708:710   */\n      0x60\n        /* \"#utility.yul\":697:706   */\n      dup3\n        /* \"#utility.yul\":693:711   */\n      add\n        /* \"#utility.yul\":685:711   */\n      swap1\n      pop\n        /* \"#utility.yul\":721:792   */\n      tag_30\n        /* \"#utility.yul\":789:790   */\n      0x00\n        /* \"#utility.yul\":778:787   */\n      dup4\n        /* \"#utility.yul\":774:791   */\n      add\n        /* \"#utility.yul\":765:771   */\n      dup7\n        /* \"#utility.yul\":721:792   */\n      tag_15\n      jump\t// in\n    tag_30:\n        /* \"#utility.yul\":802:874   */\n      tag_31\n        /* \"#utility.yul\":870:872   */\n      0x20\n        /* \"#utility.yul\":859:868   */\n      dup4\n        /* \"#utility.yul\":855:873   */\n      add\n        /* \"#utility.yul\":846:852   */\n      dup6\n        /* \"#utility.yul\":802:874   */\n      tag_15\n      jump\t// in\n    tag_31:\n        /* \"#utility.yul\":921:930   */\n      dup2\n        /* \"#utility.yul\":915:919   */\n      dup2\n        /* \"#utility.yul\":911:931   */\n      sub\n        /* \"#utility.yul\":906:908   */\n      0x40\n        /* \"#utility.yul\":895:904   */\n      dup4\n        /* \"#utility.yul\":891:909   */\n      add\n        /* \"#utility.yul\":884:932   */\n      mstore\n        /* \"#utility.yul\":949:1027   */\n      tag_32\n        /* \"#utility.yul\":1022:1026   */\n      dup2\n        /* \"#utility.yul\":1013:1019   */\n      dup5\n        /* \"#utility.yul\":949:1027   */\n      tag_19\n      jump\t// in\n    tag_32:\n        /* \"#utility.yul\":941:1027   */\n      swap1\n      pop\n        /* \"#utility.yul\":675:1034   */\n      swap5\n      swap4\n      pop\n      pop\n      pop\n      pop\n      jump\t// out\n        /* \"#utility.yul\":1040:1139   */\n    tag_22:\n        /* \"#utility.yul\":1092:1098   */\n      0x00\n        /* \"#utility.yul\":1126:1131   */\n      dup2\n        /* \"#utility.yul\":1120:1132   */\n      mload\n        /* \"#utility.yul\":1110:1132   */\n      swap1\n      pop\n        /* \"#utility.yul\":1099:1139   */\n      swap2\n      swap1\n      pop\n      jump\t// out\n        /* \"#utility.yul\":1145:1314   */\n    tag_24:\n        /* \"#utility.yul\":1229:1240   */\n      0x00\n        /* \"#utility.yul\":1263:1269   */\n      dup3\n        /* \"#utility.yul\":1258:1261   */\n      dup3\n        /* \"#utility.yul\":1251:1270   */\n      mstore\n        /* \"#utility.yul\":1303:1307   */\n      0x20\n        /* \"#utility.yul\":1298:1301   */\n      dup3\n        /* \"#utility.yul\":1294:1308   */\n      add\n        /* \"#utility.yul\":1279:1308   */\n      swap1\n      pop\n        /* \"#utility.yul\":1241:1314   */\n      swap3\n      swap2\n      pop\n      pop\n      jump\t// out\n        /* \"#utility.yul\":1320:1416   */\n    tag_18:\n        /* \"#utility.yul\":1357:1364   */\n      0x00\n        /* \"#utility.yul\":1386:1410   */\n      tag_36\n        /* \"#utility.yul\":1404:1409   */\n      dup3\n        /* \"#utility.yul\":1386:1410   */\n      tag_37\n      jump\t// in\n    tag_36:\n        /* \"#utility.yul\":1375:1410   */\n      swap1\n      pop\n        /* \"#utility.yul\":1365:1416   */\n      swap2\n      swap1\n      pop\n      jump\t// out\n        /* \"#utility.yul\":1422:1548   */\n    tag_37:\n        /* \"#utility.yul\":1459:1466   */\n      0x00\n        /* \"#utility.yul\":1499:1541   */\n      0xffffffffffffffffffffffffffffffffffffffff\n        /* \"#utility.yul\":1492:1497   */\n      dup3\n        /* \"#utility.yul\":1488:1542   */\n      and\n        /* \"#utility.yul\":1477:1542   */\n      swap1\n      pop\n        /* \"#utility.yul\":1467:1548   */\n      swap2\n      swap1\n      pop\n      jump\t// out\n        /* \"#utility.yul\":1554:1861   */\n    tag_26:\n        /* \"#utility.yul\":1622:1623   */\n      0x00\n        /* \"#utility.yul\":1632:1745   */\n    tag_40:\n        /* \"#utility.yul\":1646:1652   */\n      dup4\n        /* \"#utility.yul\":1643:1644   */\n      dup2\n        /* \"#utility.yul\":1640:1653   */\n      lt\n        /* \"#utility.yul\":1632:1745   */\n      iszero\n      tag_42\n      jumpi\n        /* \"#utility.yul\":1731:1732   */\n      dup1\n        /* \"#utility.yul\":1726:1729   */\n      dup3\n        /* \"#utility.yul\":1722:1733   */\n      add\n        /* \"#utility.yul\":1716:1734   */\n      mload\n        /* \"#utility.yul\":1712:1713   */\n      dup2\n        /* \"#utility.yul\":1707:1710   */\n      dup5\n        /* \"#utility.yul\":1703:1714   */\n      add\n        /* \"#utility.yul\":1696:1735   */\n      mstore\n        /* \"#utility.yul\":1668:1670   */\n      0x20\n        /* \"#utility.yul\":1665:1666   */\n      dup2\n        /* \"#utility.yul\":1661:1671   */\n      add\n        /* \"#utility.yul\":1656:1671   */\n      swap1\n      pop\n        /* \"#utility.yul\":1632:1745   */\n      jump(tag_40)\n    tag_42:\n        /* \"#utility.yul\":1763:1769   */\n      dup4\n        /* \"#utility.yul\":1760:1761   */\n      dup2\n        /* \"#utility.yul\":1757:1770   */\n      gt\n        /* \"#utility.yul\":1754:1756   */\n      iszero\n      tag_43\n      jumpi\n        /* \"#utility.yul\":1843:1844   */\n      0x00\n        /* \"#utility.yul\":1834:1840   */\n      dup5\n        /* \"#utility.yul\":1829:1832   */\n      dup5\n        /* \"#utility.yul\":1825:1841   */\n      add\n        /* \"#utility.yul\":1818:1845   */\n      mstore\n        /* \"#utility.yul\":1754:1756   */\n    tag_43:\n        /* \"#utility.yul\":1603:1861   */\n      pop\n      pop\n      pop\n      pop\n      jump\t// out\n        /* \"#utility.yul\":1867:2187   */\n    tag_9:\n        /* \"#utility.yul\":1911:1917   */\n      0x00\n        /* \"#utility.yul\":1948:1949   */\n      0x02\n        /* \"#utility.yul\":1942:1946   */\n      dup3\n        /* \"#utility.yul\":1938:1950   */\n      div\n        /* \"#utility.yul\":1928:1950   */\n      swap1\n      pop\n        /* \"#utility.yul\":1995:1996   */\n      0x01\n        /* \"#utility.yul\":1989:1993   */\n      dup3\n        /* \"#utility.yul\":1985:1997   */\n      and\n        /* \"#utility.yul\":2016:2034   */\n      dup1\n        /* \"#utility.yul\":2006:2008   */\n      tag_45\n      jumpi\n        /* \"#utility.yul\":2072:2076   */\n      0x7f\n        /* \"#utility.yul\":2064:2070   */\n      dup3\n        /* \"#utility.yul\":2060:2077   */\n      and\n        /* \"#utility.yul\":2050:2077   */\n      swap2\n      pop\n        /* \"#utility.yul\":2006:2008   */\n    tag_45:\n        /* \"#utility.yul\":2134:2136   */\n      0x20\n        /* \"#utility.yul\":2126:2132   */\n      dup3\n        /* \"#utility.yul\":2123:2137   */\n      lt\n        /* \"#utility.yul\":2103:2121   */\n      dup2\n        /* \"#utility.yul\":2100:2138   */\n      eq\n        /* \"#utility.yul\":2097:2099   */\n      iszero\n      tag_46\n      jumpi\n        /* \"#utility.yul\":2153:2171   */\n      tag_47\n      tag_48\n      jump\t// in\n    tag_47:\n        /* \"#utility.yul\":2097:2099   */\n    tag_46:\n        /* \"#utility.yul\":1918:2187   */\n      pop\n      swap2\n      swap1\n      pop\n      jump\t// out\n        /* \"#utility.yul\":2193:2373   */\n    tag_48:\n        /* \"#utility.yul\":2241:2318   */\n      0x4e487b7100000000000000000000000000000000000000000000000000000000\n        /* \"#utility.yul\":2238:2239   */\n      0x00\n        /* \"#utility.yul\":2231:2319   */\n      mstore\n        /* \"#utility.yul\":2338:2342   */\n      0x22\n        /* \"#utility.yul\":2335:2336   */\n      0x04\n        /* \"#utility.yul\":2328:2343   */\n      mstore\n        /* \"#utility.yul\":2362:2366   */\n      0x24\n        /* \"#utility.yul\":2359:2360   */\n      0x00\n        /* \"#utility.yul\":2352:2367   */\n      revert\n        /* \"#utility.yul\":2379:2481   */\n    tag_28:\n        /* \"#utility.yul\":2420:2426   */\n      0x00\n        /* \"#utility.yul\":2471:2473   */\n      0x1f\n        /* \"#utility.yul\":2467:2474   */\n      not\n        /* \"#utility.yul\":2462:2464   */\n      0x1f\n        /* \"#utility.yul\":2455:2460   */\n      dup4\n        /* \"#utility.yul\":2451:2465   */\n      add\n        /* \"#utility.yul\":2447:2475   */\n      and\n        /* \"#utility.yul\":2437:2475   */\n      swap1\n      pop\n        /* \"#utility.yul\":2427:2481   */\n      swap2\n      swap1\n      pop\n      jump\t// out\n\n    auxdata: 0xa2646970667358221220236a8971871dbb2bc0f5dcf5cb0a13bd27005d69b543c0419c1ca25356f4631b64736f6c63430008040033\n}\n",
				"bytecode": {
					"linkReferences": {},
					"object": "608060405234801561001057600080fd5b50604051610448380380610448833981810160405281019061003291906100d5565b816000800160006101000a81548173ffffffffffffffffffffffffffffffffffffffff021916908373ffffffffffffffffffffffffffffffffffffffff16021790555080600060010160006101000a81548173ffffffffffffffffffffffffffffffffffffffff021916908373ffffffffffffffffffffffffffffffffffffffff160217905550505061015a565b6000815190506100cf81610143565b92915050565b600080604083850312156100e857600080fd5b60006100f6858286016100c0565b9250506020610107858286016100c0565b9150509250929050565b600061011c82610123565b9050919050565b600073ffffffffffffffffffffffffffffffffffffffff82169050919050565b61014c81610111565b811461015757600080fd5b50565b6102df806101696000396000f3fe608060405234801561001057600080fd5b506004361061002b5760003560e01c80633c4f81cd14610030575b600080fd5b610038610050565b60405161004793929190610178565b60405180910390f35b60008060000160009054906101000a900473ffffffffffffffffffffffffffffffffffffffff16908060010160009054906101000a900473ffffffffffffffffffffffffffffffffffffffff16908060020180546100ad90610237565b80601f01602080910402602001604051908101604052809291908181526020018280546100d990610237565b80156101265780601f106100fb57610100808354040283529160200191610126565b820191906000526020600020905b81548152906001019060200180831161010957829003601f168201915b5050505050905083565b610139816101d2565b82525050565b600061014a826101b6565b61015481856101c1565b9350610164818560208601610204565b61016d81610298565b840191505092915050565b600060608201905061018d6000830186610130565b61019a6020830185610130565b81810360408301526101ac818461013f565b9050949350505050565b600081519050919050565b600082825260208201905092915050565b60006101dd826101e4565b9050919050565b600073ffffffffffffffffffffffffffffffffffffffff82169050919050565b60005b83811015610222578082015181840152602081019050610207565b83811115610231576000848401525b50505050565b6000600282049050600182168061024f57607f821691505b6020821081141561026357610262610269565b5b50919050565b7f4e487b7100000000000000000000000000000000000000000000000000000000600052602260045260246000fd5b6000601f19601f830116905091905056fea2646970667358221220236a8971871dbb2bc0f5dcf5cb0a13bd27005d69b543c0419c1ca25356f4631b64736f6c63430008040033",
					"opcodes": "PUSH1 0x80 PUSH1 0x40 MSTORE CALLVALUE DUP1 ISZERO PUSH2 0x10 JUMPI PUSH1 0x0 DUP1 REVERT JUMPDEST POP PUSH1 0x40 MLOAD PUSH2 0x448 CODESIZE SUB DUP1 PUSH2 0x448 DUP4 CODECOPY DUP2 DUP2 ADD PUSH1 0x40 MSTORE DUP2 ADD SWAP1 PUSH2 0x32 SWAP2 SWAP1 PUSH2 0xD5 JUMP JUMPDEST DUP2 PUSH1 0x0 DUP1 ADD PUSH1 0x0 PUSH2 0x100 EXP DUP2 SLOAD DUP2 PUSH20 0xFFFFFFFFFFFFFFFFFFFFFFFFFFFFFFFFFFFFFFFF MUL NOT AND SWAP1 DUP4 PUSH20 0xFFFFFFFFFFFFFFFFFFFFFFFFFFFFFFFFFFFFFFFF AND MUL OR SWAP1 SSTORE POP DUP1 PUSH1 0x0 PUSH1 0x1 ADD PUSH1 0x0 PUSH2 0x100 EXP DUP2 SLOAD DUP2 PUSH20 0xFFFFFFFFFFFFFFFFFFFFFFFFFFFFFFFFFFFFFFFF MUL NOT AND SWAP1 DUP4 PUSH20 0xFFFFFFFFFFFFFFFFFFFFFFFFFFFFFFFFFFFFFFFF AND MUL OR SWAP1 SSTORE POP POP POP PUSH2 0x15A JUMP JUMPDEST PUSH1 0x0 DUP2 MLOAD SWAP1 POP PUSH2 0xCF DUP2 PUSH2 0x143 JUMP JUMPDEST SWAP3 SWAP2 POP POP JUMP JUMPDEST PUSH1 0x0 DUP1 PUSH1 0x40 DUP4 DUP6 SUB SLT ISZERO PUSH2 0xE8 JUMPI PUSH1 0x0 DUP1 REVERT JUMPDEST PUSH1 0x0 PUSH2 0xF6 DUP6 DUP3 DUP7 ADD PUSH2 0xC0 JUMP JUMPDEST SWAP3 POP POP PUSH1 0x20 PUSH2 0x107 DUP6 DUP3 DUP7 ADD PUSH2 0xC0 JUMP JUMPDEST SWAP2 POP POP SWAP3 POP SWAP3 SWAP1 POP JUMP JUMPDEST PUSH1 0x0 PUSH2 0x11C DUP3 PUSH2 0x123 JUMP JUMPDEST SWAP1 POP SWAP2 SWAP1 POP JUMP JUMPDEST PUSH1 0x0 PUSH20 0xFFFFFFFFFFFFFFFFFFFFFFFFFFFFFFFFFFFFFFFF DUP3 AND SWAP1 POP SWAP2 SWAP1 POP JUMP JUMPDEST PUSH2 0x14C DUP2 PUSH2 0x111 JUMP JUMPDEST DUP2 EQ PUSH2 0x157 JUMPI PUSH1 0x0 DUP1 REVERT JUMPDEST POP JUMP JUMPDEST PUSH2 0x2DF DUP1 PUSH2 0x169 PUSH1 0x0 CODECOPY PUSH1 0x0 RETURN INVALID PUSH1 0x80 PUSH1 0x40 MSTORE CALLVALUE DUP1 ISZERO PUSH2 0x10 JUMPI PUSH1 0x0 DUP1 REVERT JUMPDEST POP PUSH1 0x4 CALLDATASIZE LT PUSH2 0x2B JUMPI PUSH1 0x0 CALLDATALOAD PUSH1 0xE0 SHR DUP1 PUSH4 0x3C4F81CD EQ PUSH2 0x30 JUMPI JUMPDEST PUSH1 0x0 DUP1 REVERT JUMPDEST PUSH2 0x38 PUSH2 0x50 JUMP JUMPDEST PUSH1 0x40 MLOAD PUSH2 0x47 SWAP4 SWAP3 SWAP2 SWAP1 PUSH2 0x178 JUMP JUMPDEST PUSH1 0x40 MLOAD DUP1 SWAP2 SUB SWAP1 RETURN JUMPDEST PUSH1 0x0 DUP1 PUSH1 0x0 ADD PUSH1 0x0 SWAP1 SLOAD SWAP1 PUSH2 0x100 EXP SWAP1 DIV PUSH20 0xFFFFFFFFFFFFFFFFFFFFFFFFFFFFFFFFFFFFFFFF AND SWAP1 DUP1 PUSH1 0x1 ADD PUSH1 0x0 SWAP1 SLOAD SWAP1 PUSH2 0x100 EXP SWAP1 DIV PUSH20 0xFFFFFFFFFFFFFFFFFFFFFFFFFFFFFFFFFFFFFFFF AND SWAP1 DUP1 PUSH1 0x2 ADD DUP1 SLOAD PUSH2 0xAD SWAP1 PUSH2 0x237 JUMP JUMPDEST DUP1 PUSH1 0x1F ADD PUSH1 0x20 DUP1 SWAP2 DIV MUL PUSH1 0x20 ADD PUSH1 0x40 MLOAD SWAP1 DUP2 ADD PUSH1 0x40 MSTORE DUP1 SWAP3 SWAP2 SWAP1 DUP2 DUP2 MSTORE PUSH1 0x20 ADD DUP3 DUP1 SLOAD PUSH2 0xD9 SWAP1 PUSH2 0x237 JUMP JUMPDEST DUP1 ISZERO PUSH2 0x126 JUMPI DUP1 PUSH1 0x1F LT PUSH2 0xFB JUMPI PUSH2 0x100 DUP1 DUP4 SLOAD DIV MUL DUP4 MSTORE SWAP2 PUSH1 0x20 ADD SWAP2 PUSH2 0x126 JUMP JUMPDEST DUP3 ADD SWAP2 SWAP1 PUSH1 0x0 MSTORE PUSH1 0x20 PUSH1 0x0 KECCAK256 SWAP1 JUMPDEST DUP2 SLOAD DUP2 MSTORE SWAP1 PUSH1 0x1 ADD SWAP1 PUSH1 0x20 ADD DUP1 DUP4 GT PUSH2 0x109 JUMPI DUP3 SWAP1 SUB PUSH1 0x1F AND DUP3 ADD SWAP2 JUMPDEST POP POP POP POP POP SWAP1 POP DUP4 JUMP JUMPDEST PUSH2 0x139 DUP2 PUSH2 0x1D2 JUMP JUMPDEST DUP3 MSTORE POP POP JUMP JUMPDEST PUSH1 0x0 PUSH2 0x14A DUP3 PUSH2 0x1B6 JUMP JUMPDEST PUSH2 0x154 DUP2 DUP6 PUSH2 0x1C1 JUMP JUMPDEST SWAP4 POP PUSH2 0x164 DUP2 DUP6 PUSH1 0x20 DUP7 ADD PUSH2 0x204 JUMP JUMPDEST PUSH2 0x16D DUP2 PUSH2 0x298 JUMP JUMPDEST DUP5 ADD SWAP2 POP POP SWAP3 SWAP2 POP POP JUMP JUMPDEST PUSH1 0x0 PUSH1 0x60 DUP3 ADD SWAP1 POP PUSH2 0x18D PUSH1 0x0 DUP4 ADD DUP7 PUSH2 0x130 JUMP JUMPDEST PUSH2 0x19A PUSH1 0x20 DUP4 ADD DUP6 PUSH2 0x130 JUMP JUMPDEST DUP2 DUP2 SUB PUSH1 0x40 DUP4 ADD MSTORE PUSH2 0x1AC DUP2 DUP5 PUSH2 0x13F JUMP JUMPDEST SWAP1 POP SWAP5 SWAP4 POP POP POP POP JUMP JUMPDEST PUSH1 0x0 DUP2 MLOAD SWAP1 POP SWAP2 SWAP1 POP JUMP JUMPDEST PUSH1 0x0 DUP3 DUP3 MSTORE PUSH1 0x20 DUP3 ADD SWAP1 POP SWAP3 SWAP2 POP POP JUMP JUMPDEST PUSH1 0x0 PUSH2 0x1DD DUP3 PUSH2 0x1E4 JUMP JUMPDEST SWAP1 POP SWAP2 SWAP1 POP JUMP JUMPDEST PUSH1 0x0 PUSH20 0xFFFFFFFFFFFFFFFFFFFFFFFFFFFFFFFFFFFFFFFF DUP3 AND SWAP1 POP SWAP2 SWAP1 POP JUMP JUMPDEST PUSH1 0x0 JUMPDEST DUP4 DUP2 LT ISZERO PUSH2 0x222 JUMPI DUP1 DUP3 ADD MLOAD DUP2 DUP5 ADD MSTORE PUSH1 0x20 DUP2 ADD SWAP1 POP PUSH2 0x207 JUMP JUMPDEST DUP4 DUP2 GT ISZERO PUSH2 0x231 JUMPI PUSH1 0x0 DUP5 DUP5 ADD MSTORE JUMPDEST POP POP POP POP JUMP JUMPDEST PUSH1 0x0 PUSH1 0x2 DUP3 DIV SWAP1 POP PUSH1 0x1 DUP3 AND DUP1 PUSH2 0x24F JUMPI PUSH1 0x7F DUP3 AND SWAP2 POP JUMPDEST PUSH1 0x20 DUP3 LT DUP2 EQ ISZERO PUSH2 0x263 JUMPI PUSH2 0x262 PUSH2 0x269 JUMP JUMPDEST JUMPDEST POP SWAP2 SWAP1 POP JUMP JUMPDEST PUSH32 0x4E487B7100000000000000000000000000000000000000000000000000000000 PUSH1 0x0 MSTORE PUSH1 0x22 PUSH1 0x4 MSTORE PUSH1 0x24 PUSH1 0x0 REVERT JUMPDEST PUSH1 0x0 PUSH1 0x1F NOT PUSH1 0x1F DUP4 ADD AND SWAP1 POP SWAP2 SWAP1 POP JUMP INVALID LOG2 PUSH5 0x6970667358 0x22 SLT KECCAK256 0x23 PUSH11 0x8971871DBB2BC0F5DCF5CB EXP SGT 0xBD 0x27 STOP 0x5D PUSH10 0xB543C0419C1CA25356F4 PUSH4 0x1B64736F PUSH13 0x63430008040033000000000000 "
				},
				"gasEstimates": {
					"creation": {
						"codeDepositCost": "147000",
						"executionCost": "infinite",
						"totalCost": "infinite"
					},
					"external": {
						"propietario()": "infinite"
					}
				},
				"methodIdentifiers": {
					"propietario()": "3c4f81cd"
				}
			},
			"storageLayout": {
				"storage": [
					{
						"astId": 36,
						"contract": "contracts/cybertron.sol:autobot",
						"label": "propietario",
						"offset": 0,
						"slot": "0",
						"type": "t_struct(Owner)43_storage"
					}
				],
				"types": {
					"t_address": {
						"encoding": "inplace",
						"label": "address",
						"numberOfBytes": "20"
					},
					"t_string_storage": {
						"encoding": "bytes",
						"label": "string",
						"numberOfBytes": "32"
					},
					"t_struct(Owner)43_storage": {
						"encoding": "inplace",
						"label": "struct autobot.Owner",
						"members": [
							{
								"astId": 38,
								"contract": "contracts/cybertron.sol:autobot",
								"label": "_owner",
								"offset": 0,
								"slot": "0",
								"type": "t_address"
							},
							{
								"astId": 40,
								"contract": "contracts/cybertron.sol:autobot",
								"label": "_smartcontractPadre",
								"offset": 0,
								"slot": "1",
								"type": "t_address"
							},
							{
								"astId": 42,
								"contract": "contracts/cybertron.sol:autobot",
								"label": "name",
								"offset": 0,
								"slot": "2",
								"type": "t_string_storage"
							}
						],
						"numberOfBytes": "96"
					}
				}
			},
			"userdoc": {
				"kind": "user",
				"methods": {},
				"version": 1
			}
		}
	}
}